:020000040800F2
:10000000D00B0020ED010008654D0008C941000833
:10001000614D00084109000839780008000000001F
:10002000000000000000000000000000B56C0008A7
:100030007509000800000000694D0008B96C00084F
:10004000070200080702000807020008070200086C
:10005000070200080702000807020008070200085C
:100060000702000807020008070200084509000807
:10007000510900085D090008690900080702000825
:10008000070200080000000007020008070200083D
:10009000070200080702000807020008070200081C
:1000A000070200080702000807020008070200080C
:1000B00007020008070200080702000807020008FC
:1000C00007020008070200080702000807020008EC
:1000D0000702000805780008070200080702000868
:1000E00007020008070200080702000807020008CC
:1000F00007020008070200080702000800000000CD
:1001000000000000070200080000000007020008CD
:1001100007020008000000000702000807020008AC
:10012000070200080702000807020008070200088B
:10013000070200080000000000000000070200089D
:10014000070200080702000800000000000000008D
:10015000000000000000000000000000000000009F
:10016000000000000000000000000000070200087E
:10017000070200080000000000000000000000006E
:10018000000000000702000800000000000000005E
:10019000000000000000000000000000000000005F
:1001A000000000000000000007020008070200082D
:1001B000070200080702000807020008000000000C
:1001C000000000000702000800000000000000001E
:1001D0000702000807020008DFF80CD000F048FA18
:1001E000004800477D7A0008D00B00200648804771
:1001F00006480047FEE7FEE7FEE7FEE7FEE7FEE70C
:10020000FEE7FEE7FEE7FEE7BD6C0008D901000847
:100210002DE9F05F0546002092469B46884606463B
:10022000814640241BE0284641464746224600F0CE
:1002300057F853465A46C01A914110D311461846F2
:10024000224600F03EF82D1A67EB01084F46224681
:100250000120002100F035F817EB00094E41201E67
:10026000A4F10104DFDC484631462A464346BDE896
:10027000F09FD2B201E000F8012B491EFBD270477B
:100280000022F6E710B513460A4604461946FFF762
:10029000F0FF204610BD30B50B460146002020225D
:1002A000012409E021FA02F59D4205D303FA02F583
:1002B000491B04FA02F52844151EA2F10102F1DCE3
:1002C00030BD202A04DB203A00FA02F100207047FA
:1002D0009140C2F1200320FA03F319439040704784
:1002E000202A04DB203A21FA02F00021704721FA8B
:1002F00002F3D040C2F120029140084319467047F2
:100300002DE9FE4F804681EA0300C00F0C460090A5
:1003100021F0004123F00045B8EB0200A94105D2CD
:100320004046214690461C460B46024623F00040BC
:10033000104347D0270DC7F30A00C3F30A510290B8
:10034000401A019040286BDAC3F3130040F4801B7D
:100350000098924620B10023D2EB030A63EB0B0B0B
:1003600001985946C0F140025046FFF7AAFF0646E1
:100370000D4650465946019A00F08CF910EB0800E2
:100380006141002487EA115284EAE7731A4340D09E
:10039000009A62B3019A012A4FEA075215DC001B4A
:1003A00061EB02014FF0004202EA0752CDE9004240
:1003B000001C41F5801132462B4600F08CF903B049
:1003C000BDE8F08F40462146F9E7001B61EB0201D2
:1003D000001C41F5801300185B412018A2F500179E
:1003E00047EB030140EAD570B6196D4111E06D0885
:1003F0004FEA360645EAC0754FEA0752001B61EB2B
:100400000201001C41F5801149084FEA3000001933
:10041000514132462B4603B0BDE8F04F00F04CB9D5
:100420000098012240000023D0EB020263EBE0734E
:10043000009821464FEAE074B8EB000061EB04013C
:10044000E9E783F000435BE781F0004158E72DE9DD
:10045000FE4F81EA030404F0004421F000410094BF
:100460004FF0000B23F0004350EA01045ED052EA43
:1004700003045BD0C3F30A54C1F30A552C44A4F21D
:10048000F3340194A0FB0254C1F3130141F4801131
:10049000C3F3130343F4801301FB024400FB034E38
:1004A000840A970A44EA815447EA8357A4FB076801
:1004B00002958D0A05FB07854FEA932C04FB0C542B
:1004C0002705029D4FEA065847EA1637B5EB08059F
:1004D0006EEB070C870E920E47EA811742EA8312F1
:1004E000A7FB0201B6EB0B0164EB00042B0D43EA02
:1004F0000C335E1844EB1C50DA465146E7FB020110
:10050000C5F313044FEA0B3343EA14534FEA0432A2
:10051000019C43EA0603A4F10C040294009CCDE97B
:1005200000B400F0D8F803B0BDE8F08F0020014619
:10053000F9E72DE9F04D81EA030404F0004B21F0C6
:10054000004514464FF0000A23F0004150EA05022E
:1005500020D054EA01021DD0C5F30A570246C5F364
:100560001303C1F31300C1F30A5640F4801543F49A
:100570008013A7EB0608101BD64608F2FD3873EB74
:10058000050002D308F1010801E092185B41B8F1BF
:10059000000F03DA00200146BDE8F08D00204FF483
:1005A0008011064684460EE0171B73EB050705D342
:1005B000121B63EB050306434CEA010C49084FEAA2
:1005C000300092185B4150EA0107EDD152EA030076
:1005D00012D082EA040083EA0501084305D0101B0B
:1005E000AB4106D20122002306E000224FF0004377
:1005F00002E06FF0010253101AEB06004CEB0851B9
:1006000010EB0A0041EB0B01BDE8F04D00F054B8CF
:10061000C1F30A52C1F3130140F2FF3341F48011D8
:100620009A4202DA00200146704740F233439A4270
:10063000A2F2334202DC5242FFF752BEFFF741BE44
:1006400030B5041E71F1000404DB4FF00044404259
:1006500064EB0101141E73F1000405DB1C464FF02E
:100660000043524263EB0403994208BF904230BDFD
:10067000064C074D06E0E06840F0010394E80700EF
:1006800098471034AC42F6D3FFF7AAFDE486000881
:1006900004870008202A06DBCB17203A41FA02F033
:1006A00043EAE07306E041FA02F3D040C2F12002CF
:1006B000914008431946704710B5141E73F10004A9
:1006C00008DA401C41F1000192185B411A4301D144
:1006D00020F0010010BD2DE9F04D92469B4611B16E
:1006E000B1FA81F202E0B0FA80F220329046FFF7D0
:1006F000E8FD04460F4640EA0A0041EA0B01534672
:100700005A46084313D0114653EA010019D0C8F1E4
:1007100040025046FFF7E4FD05460E465046594656
:100720004246FFF7CEFD084305D0012004E02046F5
:100730003946BDE8F08D0020054346EAE0762C43BB
:1007400037430A986305E40AA0EB08000022FD0A7B
:1007500044EA47540A3002D500200146E9E7010582
:1007600010196941DDE9084500196941BDE8F04DFE
:10077000A2E700000146806AC36DC26D13F0500FFE
:1007800007D0D20648BF00F047BB406D426B084619
:10079000104742F40071C16501680B68CA681B0705
:1007A00003D4910707D500F033BB12F4406FFAD1A0
:1007B000C9688904F7D4C16D21F48071C165C16D28
:1007C000C90448BF00F024BBC16D41F00101C165FF
:1007D00000F01EBB806AC16D41F04001C165016E31
:1007E00041F00401016600F017BB0000806A00F0D0
:1007F00011BB0000B0B5016804468A688868C0076C
:100800004FF0000032D012F0020218BFB0BD88686D
:1008100000F00D00012820D188684FF6C072C7F69D
:10082000FF721040023088600320086000F0FAFF79
:1008300021688968C90704BF0020B0BD054603E0F0
:1008400020688068C00712D000F0ECFF401B03282E
:10085000F6D320688068C007F2D0E06D40F0100049
:10086000E065206E40F0010020660120B0BD002050
:10087000B0BD000070B582B0044600200190216830
:100880008A68D20711D14FF6C076C7F6FF7688681E
:1008900006F17F0210420AD0E06D40F01000E065E2
:1008A000206E40F001002066012002B070BD886813
:1008B000304040F00100886040F20830C5F200008E
:1008C0000068000221D400F0ADFF21680A68D20759
:1008D00018D1054604E000BF21680868C00711D19F
:1008E0008868C00704D18868304040F00100886003
:1008F00000F098FF401B0328EED320680068C00773
:10090000EAD1C9E7002002B070BD40F20800C2F28F
:100910000000006842F663518009C0F23E51A0FB1E
:100920000101880900EB40000C2101EB800000BFB1
:10093000019001980028C6D001980138F8E700001E
:10094000FEE7000040F2B030C2F2000000F022BD2D
:1009500040F29020C2F2000000F01CBD40F2F020F6
:10096000C2F2000000F016BD40F25030C2F20000AA
:1009700000F010BD70470000EFF3108072B600BFAA
:10098000FEE70000B0B582B004460020019094F864
:100990005800012802D1022002B0B0BD012084F825
:1009A000580020460D46FFF725FFE16D10B141F0DC
:1009B00010012AE041F2021291430231E1652168FF
:1009C0004FF6C0738A68C3F6FF731A4005F0804380
:1009D0001A4402F100428A604DF60262C0F204023B
:1009E0008B68B3F1FF3F0CDC019B01330193019B4A
:1009F0009342F5D3E06D40F0100020F00201012099
:100A000003E0E16D012262F30101E165002184F858
:100A1000581002B0B0BD0000B0B582B090F85820B8
:100A2000012A01D1022141E0012280F85820002250
:100A3000019200920368B3F1A04F2FD140F2083425
:100A40004FF6006EC5F20004CFF6FF7E54F80E207C
:100A50009B681A43520721D4D1F800C02268BCF128
:100A6000000F22F4604324D04A6890F8385042EADC
:100A700045321A4322604FF60052CFF6FF72A25859
:100A800054F80E301A43D20723D1226840F61F7360
:100A900089689A43114341EA0C0119E0C16D41F0A4
:100AA0002001C1650121002280F85820084602B0CB
:100AB000B0BD4FF600512360CFF6FF71615854F876
:100AC0000E201143C90704D1216840F61F729143DB
:100AD00021600021E7E70000F0B581B0002200921C
:100AE00090F85820012A01D102218DE101230768E5
:100AF00080F85830BB685B0735D4D1E900531F2616
:100B0000C3F3012407EB8404226B03F01F039E4010
:100B1000B243C5F3846606FA03F31A432263BA6844
:100B2000BB6802F0040203F00803D21840F0AD8065
:100B30000A6807F114030426C2F34064D1F808E000
:100B400006EAD25C53F82450C2F304540722A240B0
:100B5000BEF1004F25EA02050BD143F80C501A688C
:100B600042F000430DE0C16D41F02001C16501215B
:100B700047E10EFA04F22A4343F80C201A6822F0E7
:100B800000437B61D1E9043CFD68042B50D13A6EEF
:100B90003A6E0B68C2F3846293FAA3F6B6FA86F64D
:100BA0005D0308BFC3F384664FF6FF73B242C0F221
:100BB000070303D13A6E22F000423A667A6E7A6EEB
:100BC0000E68C2F3846296FAA6F5B5FA85F51E4260
:100BD00008BFC6F38465AA4203D17A6E22F00042B0
:100BE0007A66BA6EBA6E0E68C2F3846296FAA6F599
:100BF000B5FA85F51E4208BFC6F38465AA4203D143
:100C0000BA6E22F00042BA66FA6EFA6E0E68C2F34D
:100C1000846296FAA6F5B5FA85F51E4208BFC6F3BA
:100C20008465AA4231D1FA6E22F00042FA662CE0C5
:100C3000062202EA95020E6807F160050CFA02FC32
:100C400055F823404FF20002C0F2FF3206F0F8469A
:100C5000224046EA0C06324342F0004245F8232087
:100C60000A698B6955F8226026F08076334345F88F
:100C700022300A690B7F55F82260012B26F000769E
:100C800008BF06F1007645F82260BA68D20745D160
:100C9000D1F800C0CA684FF6FF74D7F8B060634659
:100CA00002F01805C0F207046FF3DF4324FA05F5DC
:100CB0009E4305EA0C052E430025C4F27F05AA4297
:100CC000C7F8B0602AD19CFAACF2B2FA82F2002BDB
:100CD00008BF4FEA9C62013202F01E0302F01F02BD
:100CE00001260025964002EB4202CFF6206505EB77
:100CF0000255354345F000750A2B38BF46EA0255C8
:100D0000C5F3406307EB83038A685E69C5F3045546
:100D10000724AC40A643AA4032435A610968002226
:100D2000C8F2080211426BD040F2083EC5F2000E34
:100D3000DEF800300022CCF22132914203F0E07C58
:100D400004D01022C9F2C00291422CD11A022AD436
:100D5000B7F1A04F54D1DEF8001042F6635221F0F3
:100D6000E07141EA0C0141F40001CEF8001040F2BC
:100D70000801C2F200010968C0F23E528909A1FBD4
:100D80000212910901EB41010C2202EB8101009159
:100D90000099A9B3009901390091009900294FF0F9
:100DA0000001F7D12DE00022CCF25272914208BF2F
:100DB00013F0807216D00022CCF6843291424FF0AC
:100DC000000108BF13F480021BD1AEF502729742F6
:100DD00017D0DEF8001021F0E07141EA0C0141F477
:100DE00080010BE0AEF502718F4209D0DEF80010F1
:100DF00021F0E07141EA0C0141F08071CEF8001061
:100E00000021002280F85820084601B0F0BD000003
:100E1000704700007047000070470000B0B582B016
:100E200004460020002C019045D0E06D30B92046EA
:100E300000F0F8F80020206684F8580021688868DF
:100E4000800006D588684FF6C072C5F6FF72104064
:100E500088608868C00021D44FF6C0728868C5F6E3
:100E6000FF7202F18052104000F18050886040F221
:100E70000800C2F20000006842F663528009C0F226
:100E80003E52A0FB02029009022202EB400000BF8A
:100E90000190019810B101980138F9E78868C00005
:100EA0000CD4E06D40F01000E065206E40F00100D1
:100EB0002066012003E0012002B0B0BD00208A6856
:100EC000E36D02F0040203F01003D218E26D70D15A
:100ED00022F481720232E2658A68D2071AD140F2A6
:100EE000083C4FF600534FF60062C5F2000CCFF6F7
:100EF000FF73CFF6FF725CF803305CF802201A43F0
:100F0000D20707D16268DCF8003023F47C131A435F
:100F1000CCF80020627FE36B43EA4232D4E902C39B
:100F20001A4394F8243042EA0C02012B42EA0342AD
:100F300007D1D4F828C00023CFF6FE7303EB4C434F
:100F40001A43E36A33B1D4F830C003F4787343EA48
:100F50000C031A43D1F80CC044F20703CFF6F07328
:100F600003EA0C031A43CA600A69636B22F0406209
:100F70001A430A618A68120742D494F83820237F02
:100F8000520042EA833CCB6844F2020223EA0202A6
:100F900042EA0C02CA6022690B6972B143F48033E1
:100FA0000B61D1F8C0C043F6FF732CEA03031A4368
:100FB0000BE042F01001012030E023F480320A619E
:100FC000D1F8C02043F6FF739A43C1F8C02094F8CB
:100FD00040300A69012B10D140F2FD7322EA030C64
:100FE000D4E91132D4E913E543EA0C031A4342EA87
:100FF0000E022A4342F0010201E022F001020A61DE
:1010000062690B6B012A23F00F0202D1236A013BB4
:101010001A430A63E16D012262F30101E16502B046
:10102000B0BD00002DE9F04198B0044600201790B3
:10103000CDE91500CDE9130002A84421FFF720F9FE
:10104000206840F20011C5F20001884257D0B0F18B
:10105000A04F40F0B0804FF4004002904FF000509D
:10106000119002A800F020FD002818BFFFF784FCB3
:1010700040F27001C2F200010A6841F24C00C4F271
:101080000200531C0B6042B9016841F40051016039
:10109000016801F400510191019901684FF48058F1
:1010A00041F0020101600068002700F00200019099
:1010B00001980320149040F20040C4F6000013A9E8
:1010C000CDF84C80159700F0D1FA40F290251C2005
:1010D000C2F20005C4F20200052180224FF4007321
:1010E00085E8830005F114004FF400664FF0200CF2
:1010F000C5E9037280E84810C5F8208053E04FF43A
:10110000004002904FF00050119002A800F0CCFC7B
:10111000002818BFFFF730FC40F27001C2F2000156
:101120000A6841F24C00C4F20200531C0B6042B941
:10113000016841F400510160016801F4005101911E
:1011400001990168002641F002010160006813A9BD
:1011500000F00200019001984FF40040139003202A
:10116000149040F20040C4F60000159600F07EFA9C
:101170001C20C4F2020040F2F0251430C2F2000537
:1011800024214FF4007385E8430005F11400802208
:101190004FF400674FF0200C80E888104FF4805027
:1011A000C5E903622862284600F048F908B1FFF754
:1011B000E3FB6565AC6218B0BDE8F0812DE9F04154
:1011C00040F200170446C5F20007D7F8080223686A
:1011D00090469B685A0704D40E4694F8581001298B
:1011E00002D10220BDE8F08100F01F050120092D89
:1011F00084F8580052D8A84040F2212108424DD02E
:101200002046FFF737FB20B1002184F85810BDE8D5
:10121000F0812168E06D40F60172904300F5807026
:10122000B942E06500D11DB9E06D20F48010E065A1
:10123000E06D40F27573C0044FF0000044BF206EB3
:1012400020F006002066606D40F2ED77C0F60003E6
:10125000C0F6000740F2D5750022C0F60005C0E9CF
:101260000B371C2345630B6084F858204A684346BB
:1012700042F010024A60CA6842F00102CA6040317E
:10128000324600F06DF921684FF6C0738A68C7F6E0
:10129000FF731A4004328A60BDE8F081002084F8B0
:1012A00058000120BDE8F08180B5014690F8250086
:1012B000022824D10868D1E910CE8A6C036823F093
:1012C0000E030360136823F480731360026822F036
:1012D000010202600EF01F00012202FA00F0CCF8B9
:1012E0000400D1E913205060486D60B1026822F417
:1012F00080720260D1E916024260002004E00420FE
:10130000C863012000E00020012281F8252000228E
:1013100081F8242080BD000080B590F825100229B6
:101320002DD10168D0E910CE826C0B6823F00E033A
:101330000B600B6823F001030B60116821F48071CE
:1013400011600EF01F02012101FA02F2CCF8042014
:10135000D0E913325A60426D32B1136823F48073BE
:101360001360D0E91623536080F82510826B0021AA
:1013700080F824100AB190470021084680BD04215E
:10138000C1630121002280F8251080F8242008463E
:1013900080BD0000B0B5D0E910C30268DCF80010D1
:1013A00003F01F030424D2F800E09C400C4218BF55
:1013B0001EF0040521D102249C400C4218BF1EF0EF
:1013C000020527D1D940090723D51EF0080108BF1F
:1013D000B0BD116821F00E011160012101FA03F284
:1013E000CCF80420C16380F82510416B002280F8FE
:1013F000242071B1BDE8B04008471168890603D4C4
:10140000116821F004011160CCF80440016B00293F
:10141000F0D1B0BD1168890606D4116821F00A0127
:101420001160012180F82510CCF80440C16A002227
:10143000002980F82420DDD1EBE7000000284FF0E0
:10144000010C00F08B802DE9F04F0021C4F2020165
:1014500003684FF6F83201F58168CBF6FD7243451B
:1014600038BF02F580624CF6CD451A44CCF6CC4527
:10147000A2FB052E03F0FC02A2F10802A2FB052943
:1014800000F1080B01F580646FF003029BE8400C4B
:101490003CBF0024C4F2020401F5026502EA9E0288
:1014A000434538BF01F50065C0E91042022480F8C9
:1014B00025401C6847F6F07724EA0707D0E9054184
:1014C00047EA0A0747EA0B07D0E907E83C4321430C
:1014D00041EA0E0141EA0801314319600021C4F2DA
:1014E000020101F50861C164C9F304112A440CFA30
:1014F00001F38264B6F5804F036504BF00214160AB
:10150000476840F6840CF9B211607A1EC4F2020CEE
:10151000032ACCF8003012D801390CEB81020023E9
:1015200001F01F01012742F87C3F0CF1BC0307FAD0
:1015300001F1C0E91523C165CCF8C01003E000211A
:10154000C0E91511C1654FF0000C0121C0F83CC085
:1015500080F8251080F824C0BDE8F04F6046704741
:101560002DE9F04190F824C0BCF1010F40D04FF0BC
:10157000010C80F824C090F825C0BCF1010F34D1D3
:101580004FF0020C80F825C04FF0000CC0F83CC0B2
:10159000D0F800C000F14C0E9EE83040DCF800604E
:1015A000BEF1000F26F00106CCF8006065601CBF9C
:1015B000D0E916456560D0E91076846806F01F060C
:1015C0000125D0F83080B5407D60CCF80430102C77
:1015D0000B4604BF13460A46B8F1000FCCF808309A
:1015E000CCF80C2007D00E210CE0002180F824104C
:1015F0000220BDE8F081DCF8001021F00401CCF8F5
:1016000000100A21DCF800201143CCF80010806C97
:101610000168C90303D5016841F480710160BEF11E
:10162000000F05D0DEF8000040F48070CEF8000016
:10163000DCF8000040F00100CCF800000020BDE81C
:10164000F0810000B0B5044600F0ECF8054640F229
:101650006400C2F200000068611C18BF044400BFAF
:1016600000F0E0F8401BA042FAD3B0BD2DE9F04FE6
:1016700082B00A68002A00F0C58041F2004500F1FE
:101680003847C4F60005062340F200484FEAB72663
:10169000A84208BF0523C4F20108052E38BF4FEA4F
:1016A000B72300244FF0030E00270025009309E024
:1016B0000A68013532FA05F307F1020704F1040460
:1016C00000F0A080012303FA05FC12EA0C09EFD018
:1016D000D1F804A00AF00302A2F1010BBBF1010F43
:1016E00011D8D0F808B0CE680EFA07F32BEA03033E
:1016F000BE40334383604368CAF3001623EA0C03F9
:10170000AE4033434360032A1ED0D0F80CC08B6830
:101710000EFA07F62CEA0606BB403343022AC360E2
:1017200012D16FF0030202EA5502024404F01C06D3
:101730000F23D2F820C003FA06FA0B692CEA0A0C30
:10174000B34043EA0C03136202684E680EFA07F3D3
:101750009A4306F00303BB401A4316F4403F02606D
:10176000A6D041F26003C4F202031A684FF6084A99
:1017700042F001021A601A68CFF6FF7A02F0010205
:101780000192019A25F00302424452F80AC004F083
:101790000C060F23B3402CEA030C009B03FA06F659
:1017A00046EA0C0342F80A30D8F808C04B684CEA05
:1017B000090640F20C4ADA0258BF2CEA0906C8F8BA
:1017C0000860C4F2010ADAF800C09A024CEA09067D
:1017D00058BF2CEA0906CAF80060D8F804C09A037A
:1017E0004CEA090658BF2CEA0906C8F80460D8F884
:1017F0000020DB0342EA090658BF22EA0906C8F8BE
:10180000006055E702B0BDE8F08F000000690840B5
:1018100018BF0120704700001823002A08BF2823A2
:10182000C150704740F2C870C2F2000000687047B3
:1018300040F2640040F2C871C2F20000C2F200013E
:1018400000680A68104408607047000080B50320F3
:1018500000F08CF8002000F009F800281CBF0120DF
:1018600080BD00F02DF8002080BD0000B0B540F232
:101870006401C2F20001096801B3044640F20800A5
:10188000C2F200004FF47A720068B2FBF1F1B0FBD3
:10189000F1F001F0F3F80F2C4FF001050CD858B916
:1018A0004FF0FF3021460022002500F033F840F2CF
:1018B0006800C2F2000004602846B0BD0120B0BD3F
:1018C00082B041F25800C4F20200816841F0010187
:1018D0008160816801F0010101910199016841F085
:1018E00080510160006800F080500090009802B0C4
:1018F00000F0D0B8002848BF704700F01F01012257
:1019000002FA01F14EF200124009CEF2000242F852
:101910002010704710B54EF60C5CCEF2000CDCF8CF
:101920000030C3F3022E8EF00704042C28BF0424D9
:10193000BEF103034FF0FF3E0EFA04F438BF00235C
:10194000A14399400EFA03F39A43114300F1604218
:1019500000F00F03090102F56442043B63440028D0
:1019600048BF03F10C02117010BD00004EF60C517F
:10197000CEF200010A684FF6FF031A4060F30A2214
:1019800042F0806040F0FD7008607047B0F5007F65
:101990003BD0002872D147F2000CC4F2000CDCF8F6
:1019A0000010DCF8802001F4C06122F48072B1F5EF
:1019B000806FCCF8802026D1DCF80010012262F381
:1019C0004A21CCF8001040F20801C2F20001096877
:1019D000322359434DF68363C4F21B33A1FB031337
:1019E00002EB9341002200BFDCF81400013942F100
:1019F0000003400501D5002BF6D1DCF814004005AA
:101A000044BF032070470020704747F2000CC4F227
:101A1000000CDCF80010DCF8802001F4C06142F416
:101A20008072B1F5806FCCF88020ECD1DCF800102A
:101A3000012262F34A21CCF8001040F20801C2F200
:101A400000010968322359434DF68363C4F21B3306
:101A5000A1FB031302EB9341002200BFDCF814004A
:101A6000013942F10003400501D5002BF6D1DCF825
:101A70001400400544BF03207047C4E747F200004C
:101A8000C4F200000168022262F34A2101600020D2
:101A90007047000047F20800C4F20000016841F4FA
:101AA00080410160704700002DE9F04381B081461C
:101AB000807841F288070007C4F2020701D40025AC
:101AC00065E057F8300C10F080580BD157F8300C07
:101AD00040F0805047F8300C57F8300C00F0805040
:101AE0000090009847F20004C4F20004206840F41B
:101AF00080702060FFF796FE054600BF206810F456
:101B0000807607D1FFF78EFE401B0328F6D303250E
:101B100016B933E000258EB3B86810F4407012D0C7
:101B2000D9F8401088420BD0B868B96820F44070EA
:101B300041F48031B960B96821F48031B960B8608E
:101B4000C00703D111E00020C0070ED0FFF76AFEE6
:101B5000064641F2893400BFB868800705D4FFF714
:101B600061FE801BA042F7D303253DB9B868D9F8C0
:101B7000401020F4407008430025B860B8F1000F11
:101B800005D157F8300C20F0805047F8300CD9F8C8
:101B90000000C10712D1810719D4410720D40107E1
:101BA00027D481062ED4410635D401063CD4C10584
:101BB00043D481054AD4410551D460E03968D9F84D
:101BC000042021F00301114339608107E5D539680C
:101BD000D9F8082021F00C01114339604107DED506
:101BE0003968D9F80C2021F0300111433960010720
:101BF000D7D53968D9F8102021F0C00111433960D8
:101C00008106D0D53968D9F8142021F440611143F8
:101C100039604106C9D53968D9F8182021F44051F6
:101C2000114339600106C2D53968D9F81C2021F466
:101C3000404111433960C105BBD53968D9F820202E
:101C400021F44031114339608105B4D53968D9F8A0
:101C5000242021F440211143396041050FD5396812
:101C6000D9F8282021F440111143B2F5801F3960C2
:101C700005D157F87C1C41F4801147F87C1C010504
:101C80000FD53968D9F82C2021F440011143B2F561
:101C9000800F396005D157F87C1C41F4801147F85A
:101CA0007C1CC1040FD53968D9F8302021F040716F
:101CB0001143B2F1807F396005D157F87C1C41F4A3
:101CC000801147F87C1C81040FD53968D9F834207D
:101CD00021F040611143B2F1006F396005D157F82E
:101CE0007C1C41F4801147F87C1C41040FD53968F5
:101CF000D9F8382021F040611143B2F1006F39600A
:101D000005D157F87C1C41F4801147F87C1C000475
:101D10000FD53868D9F83C1020F040500843B1F195
:101D2000805F386005D157F87C0C40F4803047F86C
:101D30007C0C284601B0BDE8F08300002DE9F04797
:101D4000002800F0088142F2000AC4F2020A0446A8
:101D5000DAF800000D4600F00F0088420DD2DAF8E4
:101D6000000020F00F002843CAF80000DAF8000055
:101D700000F00F00A84240F0EE80216841F2080810
:101D8000C807C4F202080CD14FF00009206881078F
:101D90004BD4B9F1800F61D1D8F8000020F0F000E9
:101DA0005AE06068022800F0CA80032840F0CF8023
:101DB00058F8082C920140F1CE80D8F80420D8F8C9
:101DC000043042F20046C3F3031302F00302D8F8D2
:101DD00004700133C0F2F406032A04BF43F2006624
:101DE000C0F26E16B6FBF3F2D8F80430C7F306273C
:101DF0007A43C3F34163022707EB4303B2FBF3F2D9
:101E00004BF20043C0F2C4439A4240F2EC80D8F84F
:101E1000002012F0F00F00F0DC80890740F1E38031
:101E2000A168002940F0DF80D3E0410705D5D8F84C
:101E3000001041F4E061C8F80010000706D5D8F89A
:101E40000000072161F30D20C8F80000D8F8000059
:101E5000A16820F0F0000843C8F80000DAF800009C
:101E600000F00F00A84219D9DAF8000020F00F00A6
:101E70002843CAF80000FFF7D5FC064641F2883730
:101E8000DAF8000000F00F00A84207D0FFF7CAFC04
:101E9000801BB842F4D90320BDE8F08720684107D1
:101EA00007D5D8F80010E26821F4E0611143C8F8C2
:101EB0000010000708D5D8F80000216920F4605010
:101EC00040EAC100C8F80000D8F8000042F2004122
:101ED000C0F2F40100F00C000428084600F0A480D1
:101EE000D8F8000000F00C00082843F20060C0F2AF
:101EF0006E1000F09980D8F8002002F00C020C2A35
:101F000040F09180D8F80420D8F8043002F00302A1
:101F1000C3F30313D8F804700133032A08BF014642
:101F2000B1FBF3F0D8F80410C7F30627C1F3416101
:101F30000222784302EB4101B0FBF1F074E058F863
:101F4000081C89035CBF0120BDE8F08706E058F853
:101F5000081C490502D40120BDE8F087D8F800101C
:101F600001F00C0104293ED0D8F8001001F00C015A
:101F7000082938D0D8F8001001F00C010C2932D112
:101F8000D8F80410D8F8042042F20047C2F3031234
:101F900001F00301D8F804300132C0F2F40703293C
:101FA00004BF43F20067C0F26E17B7FBF2F1D8F836
:101FB0000420C3F306235943C2F34162022303EB17
:101FC0004202B1FBF2F14BF20042C0F2C442914234
:101FD00009D9D8F80010082262F307114FF08009E0
:101FE000C8F8001001E04FF00009D8F8001021F007
:101FF00003010843C8F80000FFF714FC064641F24D
:10200000883700BFD8F80000616800F00C00B0EB22
:10201000810F3FF4BBAEFFF705FC801BB842F1D93E
:102020000320BDE8F0870020D8F8001048F2926243
:10203000C1F30311C0F60002515C40F2080201F046
:102040001F0120FA01F140F26800C2F200000068AE
:10205000C2F200021160BDE8F047FFF707BC0000C4
:1020600040F2080041F20801C2F20000C4F202018D
:102070000068096848F2A262C1F30221C0F60002BA
:10208000515C01F01F01C8407047000040F2080099
:1020900041F20801C2F20000C4F2020100680968BE
:1020A00048F2A262C1F3C221C0F60002515C01F005
:1020B0001F01C8407047000080B541F20C01C4F216
:1020C000020151F8040C42F20042C0F2F40200F0A6
:1020D0000C000428104608BF80BD51F8040C00F025
:1020E0000C00082843F20060C0F26E1022D051F8B4
:1020F000043C03F00C030C2B1CBF002080BDD1F866
:1021000000C00B680CF0030CC3F3031E0B680EF148
:10211000010EBCF1030F08BF02460968B2FBFEF0D6
:10212000C3F30623C1F341610222584302EB41018C
:10213000B0FBF1F080BD00002DE9F04182B0002835
:1021400000F001810446007841F20006C007C4F2A5
:10215000020654D12078800772D42078000700F15D
:1021600095802078400700F1B3802078800600F148
:102170000081E569002D00F01882B06800F00C00C5
:102180000C2840F05981012D00F0DD80F068216AB3
:1021900000F003028A4240F0D680626A6FF00F03BB
:1021A00000F0F00103EB0212914240F0CC80A16AF2
:1021B00000F4FE42B2EB012F40F0C580E16A00F06E
:1021C0007842B2EBC16F40F0BE80226B0023CFF6A5
:1021D000E07303EA025200F4C001A2F5001291423A
:1021E00040F0B180616B4FF07E4202EA016100F085
:1021F000C06001F17E41884240F0A580D5E1B06821
:1022000000F00C01F068082959D0032281F00C017C
:1022100022EA00000844B0FA80F040094FD1656816
:10222000B5F5A02F00F0D380B5F5803F00F0D38046
:10223000306820F480303060306820F48020CDE0B9
:10224000B068F16800F00C00042866D001F00301CA
:1022500080F00C0081F002010844B0FA80F04009DF
:102260005BD1E1683068002900F0D38040F48070D1
:102270003060FFF7D7FA05463068400500F1FE8070
:10228000FFF7D0FA401B0228F6D930E16169D6F891
:102290009400002900F0898040F00100C6F8940005
:1022A000FFF7C0FA054600BFD6F8940080073FF557
:1022B00058AFFFF7B7FA401B0228F5D917E130688D
:1022C00080037FF547AF606800287FF443AF3AE0B2
:1022D000B06D10F0805808D1B06D40F08050B065FE
:1022E000B06D00F080500190019847F20007C4F2F1
:1022F00000073868C0052AD4386840F48070386018
:10230000FFF790FA054600BF3868C0051FD4FFF7F5
:1023100089FA401B0228F7D9E9E03068400501D569
:10232000E06880B17068216920F0FE4040EA0160F9
:10233000706040F26800C2F200000068FFF796FA91
:1023400000283FF40AAF012002B0BDE8F081A56883
:10235000052D00F0B080012D00F0B380D6F890007C
:1023600020F00100C6F89000D6F8900020F004009C
:10237000ABE0A169D6F89800002900F0878040F012
:102380000100C6F89800FFF74DFA0546D6F8980008
:1023900080073FF5EEAEFFF745FA401B02284FF0ED
:1023A0000300F3D902B0BDE8F08120F00100C6F8C7
:1023B0009400FFF737FA0546D6F8940080077FF5BA
:1023C000D0AEFFF72FFA401B0228F5D98FE0306816
:1023D00040F480203060306840F480303060FFF797
:1023E00021FA002D054610D0306880033FF5B2AECB
:1023F000FFF718FA401B6428F6D978E0FFF712FAC5
:10240000401B64284FF00300CCD830688003F5D41B
:10241000A0E620F480703060FFF704FA054600BFA4
:10242000306840057FF599AEFFF7FCF9401B0228A4
:102430004FF00300F4D9B5E7306820F080703060C9
:10244000FFF7F0F9022D05460CD100BF306880017E
:1024500067D5FFF7E7F9401B02284FF00300F5D9D5
:10246000A0E700BF3068800140F19880FFF7DAF9FB
:10247000401B02284FF00300F4D993E770682169EC
:1024800020F0FE4040EA0160706066E620F0010046
:10249000C6F89800FFF7C6F9054600BFD6F89800C1
:1024A00080077FF566AEFFF7BDF9401B02284FF0AD
:1024B0000300F3D976E7D6F8900040F00400C6F8A0
:1024C0009000D6F8900040F00100C6F89000FFF7A9
:1024D000A9F9002D054641F2883715D0D6F89000AD
:1024E000800715D4FFF79EF9401BB842F6D90320A8
:1024F00002B0BDE8F08100BFFFF794F9401BB8427D
:102500004FF003003FF64EAFD6F890008007F3D4AB
:10251000B8F1000F7FF429AEB06D20F08050B065A7
:1025200023E6F06848F20C01C0F29F1104F1200785
:1025300000EA010C8ECF6FF00F00D4E90C5400EBD1
:1025400002100022CFF6E07241EA0C0102EA0552C5
:102550000843A2F500124FF07E4540EA032005EA49
:102560000465104305F17E4540EAC7602843F060EA
:10257000306840F080703060F06840F08070F0604B
:10258000FFF750F90446306880010ED4FFF74AF98E
:10259000001B02284FF00300F5D903E7F0684FF65F
:1025A000FC71CFF6EE610840F060002002B0BDE89B
:1025B000F081000010B5006840684FEA1043C0F396
:1025C000042E00F03F0CC0F34234CB7081F801E0E0
:1025D00081F802C00C700AB1002010BDDCB22409E1
:1025E00004EB840403F00F0303EB4403020ACB70F3
:1025F0004FEA1E1343EA830302F00F0202EB430289
:102600004A704FEA1C1242EA820200F00F0000EB0F
:1026100042008870002010BD10B5006883684B60D0
:1026200003696FF3DF338B600068C0F30543C0F3C9
:10263000062E00F07F0CC0F380540B7081F801E08F
:1026400081F802C0CC700AB1002010BD020C1B0939
:1026500043EA830302F00F0202EB4302040A0A700A
:102660004FEA1E1202EB820204F00F0303EB420258
:102670004A704FEA1C1202EB820200F00F0000EBDE
:1026800042008870002010BD70B598B3044690F8E1
:10269000250028B9002084F82400204600F064F8C2
:1026A000022084F825002068C168C90625D4CA2103
:1026B000416253214162C168490620D4C16841F09A
:1026C0008001C160FFF7AEF82168C968490623D4CC
:1026D00006460025FFF7A6F8801BB0F57A7F84BF79
:1026E000032584F825502068C068400608D4032DCF
:1026F000F0D105E00125E8B270BD002505E0002518
:102700006DB12DB32068FF214162002D04BF01206F
:1027100084F82500E8B270BD0025002DF1D194E8C1
:102720000F004FF6BF758669CFF68F352E40866154
:1027300026693143A669856931432943816143EAAA
:1027400002410161204604F06BFA0546002DD9D103
:1027500020686169D4E90723866926F0604633431F
:102760001A4311438161CDE710B592B0044601A828
:102770004421FDF785FD206842F60001C4F2000106
:10278000884201D012B010BD4FF4002001904FF4E8
:102790000070119001A8FFF787F9002818BFFEF715
:1027A000EBF841F25800C4F20200816B41F40041A1
:1027B0008163016841F480610160006800F4806019
:1027C0000090009812B010BD2DE9F04381B004468E
:1027D00090F824000225012800F09180012084F85F
:1027E000240084F8255032B14878CA788F780002E6
:1027F00040EA024842E048784FF0CD0CC20642BFA2
:1028000000F0EF000A304870CA784878A2F10A0355
:10281000DEB206FB0CF6F50A05EB8505A3EB4503D6
:102820004FF0010E8F780EEBD626092A88BF43EAB7
:102830000612A0F10A03DEB206FB0CF6F50A05EB60
:102840008505A3EB45030EEBD625092888BF43EA8F
:102850000510C0B2D2B2000240EA0248A7F10A0055
:10286000C2B202FB0CF2D30A03EB8303A0EB4300DA
:102870000EEBD222092F88BF40EA0217206891F898
:102880000090CA21416253214162C16849061BD4AC
:10289000C16841F08001C160FEF7C4FF2168C968CA
:1028A000490630D406460025FEF7BCFF801BB0F574
:1028B0007A7F84BF032584F825502068C0684006CD
:1028C00003D4032DF0D100E000256DB9F8B240EA41
:1028D00008004FEA493120F0C000226808435060E8
:1028E000204604F09DF905462068FF21002D416235
:1028F00004BF012084F82500002084F82400E8B2F9
:1029000001B0BDE8F0830025002DEDD1DEE7000029
:102910002DE9F041044690F824000227012800F038
:10292000A980012084F8240084F8257020680D46D1
:10293000CA21416253214162C168904649061BD4B5
:10294000C16841F08001C160FEF76CFF2168C96871
:10295000490626D406460027FEF764FF801BB0F523
:102960007A7F84BF032784F825702068C0684006FA
:1029700003D4032FF0D100E00027002F6FD120688F
:10298000B8F1000F806900F040000ED0002804BFAD
:102990000020E8706A782978A878120242EA01419A
:1029A00043E00027002F5AD1E9E7002804BF0020A8
:1029B000E87029784FF0CD0CA1F10A03DFB207FBD4
:1029C0000CF7FE0A6A7806EB8606A3EB46034FF087
:1029D000010EA8780EEBD727092988BF43EA071113
:1029E000A2F10A03DFB207FB0CF7FE0A06EB86062C
:1029F000A3EB46030EEBD726092A88BF43EA06124B
:102A0000D2B2C9B2120242EA0141A0F10A02D3B223
:102A100003FB0CF3DF0A07EB8707A2EB47020EEB81
:102A2000D323092888BF42EA0310C0B2EA780843DA
:102A300047F67F7140EA8250C0F27F012268084069
:102A40001060906920F480209061D5E903019369BA
:102A5000084318439061204604F0E2F807462068D6
:102A6000FF21002F416204BF012084F825000020CF
:102A700084F82400F8B2BDE8F0810000411E002077
:102A8000B0EB116F1CBF012070474EF21002CEF266
:102A9000000251604EF62351CEF20001F0230B707C
:102AA0000721906011607047B0B590F83C20012A72
:102AB00004BF0220B0BD012280F83C20D1E90232DF
:102AC000D1E900CE22F47C5223F4705343EA02048D
:102AD00048F2FF73CEF6F0730EEA0302224303F5C9
:102AE000006404EA0C0442EA040C0C6903F5C052C9
:102AF00022404C6942EA0C02224303F56054224012
:102B00000C6B03F5F04323401A438B6940F2000C31
:102B1000CC69CEF6FF7C0CEA03431443D0F800C026
:102B200043F20042C4F20102944543EA040305D093
:102B300042F60042C4F20102944516D14FF6FF72EC
:102B4000CDF60F421A40D1E9083ED1E90A410025ED
:102B5000CDF6F04505EA0454224323F008531A4306
:102B60002EF000531A4342EA01030021CCF844300E
:102B700080F83C100846B0BD70B590F83C20012AA2
:102B80004FF002024AD0012380F83C3080F83D200B
:102B9000026843F2004C54689368C4F2010C42F698
:102BA000004E6245C4F2010E01D0724503D14D685A
:102BB00024F470042C434FF68F75CFF6FF550E6842
:102BC0002C4042F6FF35C4F201053443AA4254605A
:102BD0000FDCB2F1804F16D040F20046C4F200067E
:102BE000B24210D040F60006C4F20006B2420AD04B
:102BF0000EE0724507D044F20006C4F20106B2426C
:102C000001D0624504D1896823F0800319439160A3
:102C10000121002280F83D1080F83C20104670BD54
:102C2000002804BF0120704710B5044690F83D000D
:102C300028B9002084F83C00204600F023F8022048
:102C400084F83D002068211D04F042F8012084F83A
:102C5000480084F83E0084F83F0084F8400084F87F
:102C6000410084F8420084F8430084F8440084F86A
:102C7000450084F8460084F8470084F83D000020B1
:102C800010BD000070B586B0044600680021B0F1A8
:102C9000804F0591CDE903110291019117D040F2C7
:102CA0000041C4F20001884220D042F60041C4F243
:102CB0000101884263D141F25800C4F202008168E8
:102CC00041F400618160806800F400600AE041F234
:102CD0005800C4F20200016841F00101016000687F
:102CE00000F001000090009806B070BD41F258005D
:102CF000C4F202000168002641F00201016001688F
:102D000001F002010091009950F80C1C41F0020101
:102D100040F80C1C50F80C0C01A900F002000090C7
:102D200000981020019002200290059040F200408F
:102D3000C4F60000CDE90366FEF798FC40F250357A
:102D40004420C2F20005C4F202003D214FF400739A
:102D500085E8430005F1140080224FF4006C4FF029
:102D6000200E80E808502846C5E903622E62FEF76F
:102D700065FB002818BFFDF7FFFD6562AC6206B079
:102D800070BD000080B590F83C20012A4FF002028F
:102D900000F0A880012380F83C3080F83D20D0F876
:102DA00000C08822DCF80830CFF6CE721A40CCF88A
:102DB00008200B686F2B0FDD1F22C0F21002934218
:102DC00035DCB3F5005F44DA702B00F08D80B3F58D
:102DD000805F00F08080CFE02F2B34DD4F2B3DDC77
:102DE000302B6CD0402B40F0C780D1F804E0C9688C
:102DF000DCF82030DCF8202022F00102CCF8202082
:102E0000DCF8182022F0F00242EA011123F00A0255
:102E100042EA0E02CCF81810CCF82020DCF808109A
:102E20004FF68872CFF6CF721140473151E03F2103
:102E3000C0F210018B4238DC2021C0F210018B421D
:102E40003DD0302137E0D3B3102B38D0202B36D0F3
:102E500092E05CD0B3F1101F31D08DE0502B69D0DF
:102E6000602B40F08980D1F804E0C968DCF820309C
:102E7000DCF8202022F01002CCF82020DCF818200A
:102E800022F4704242EA013123F0A00242EA0E121B
:102E9000CCF81810CCF82020DCF808104FF6887217
:102EA000CFF6CF721140673113E04021C0F210011C
:102EB0008B4204D07021C0F210018B425CD1DCF84F
:102EC00008104FF68872CFF6CF721140194341F0C7
:102ED0000701CCF808100022012180F83D100021E4
:102EE00080F83C10104680BDD1E901E3C968DCF8E8
:102EF000082043EA0E0322F47F4243EA01211143F2
:102F0000CCF80810DCF8081041F07701E1E7D1E9CE
:102F100001E3C968DCF8082043EA0E0322F47F428B
:102F200043EA01211143CCF80810DCF8081041F401
:102F30008041CEE7D1F804E0C968DCF82030DCF845
:102F4000202022F00102CCF82020DCF8182022F00A
:102F5000F00242EA011123F00A0242EA0E02CCF822
:102F60001810CCF82020DCF808104FF68872CFF645
:102F7000CF7211405731ACE70122ADE77047000036
:102F80007047000070470000F0B590F83C30012B0E
:102F900004BF0220F0BD4FEAB2020123032A80F8E9
:102FA0003C3000F2B380DFE802F00226446403689C
:102FB000D1E900C5D1F80CE01C6A1A6A42F6FF3765
:102FC00022F001021A621A4652F8186FC4F2010781
:102FD000BB4274DCB3F1804F00F0838040F20047C5
:102FE000C4F20007BB427CD040F60007C4F20007E1
:102FF000BB4276D08FE00368D1E900E6D1E902C197
:103000001C6A1A6A360222F010021A621A4652F834
:10301000185F4FF2FF07BE4325F4734561F30F3687
:1030200024F0A0040EF00A0746EA050144EA071757
:103030003CE00768D1E900C5D1E902313C6A3A6A4F
:1030400061F3071522F480723A623A4652F81C6F17
:1030500026F0F30645EA060124F420660CF00A0582
:1030600046EA052611603E62116821F00C011160EC
:1030700048E00368D1E900E6D1E902C11C6A1A6A96
:10308000360222F480521A621A4652F81C5F4FF23E
:10309000FF07BE4325F4734561F30F3624F4204443
:1030A0000EF00A0746EA050144EA073711601F627D
:1030B00011684FEA0C2321F44061116022E042F6CE
:1030C0000047C4F20107BB420BD044F20007C4F230
:1030D0000107BB4205D043F20047C4F20107BB42DF
:1030E00019D126F00306354324F00A070CF00A062E
:1030F0006EF3071537449D611F629F6927F00C0727
:103100009F618B681168194300231160002180F8CA
:103110003C101846F0BD46F00105E5E7002804BF65
:103120000120704710B5044690F83D0028B90020F2
:1031300084F83C00204600F023F8022084F83D008B
:103140002068211D03F0C4FD012084F8480084F8A4
:103150003E0084F83F0084F8400084F8410084F881
:10316000420084F8430084F8440084F8450084F861
:10317000460084F8470084F83D00002010BD0000A0
:103180007047000070B5064659B1081F4FEAB000FD
:10319000032809D8DFE800F0020B0E1106F13F000A
:1031A0000DE006F13E000AE006F1430007E006F1FB
:1031B000400004E006F1410001E006F1420004781D
:1031C00041B1082909D0042914BF06F1470006F1CE
:1031D000450004E006F1440001E006F146000578F0
:1031E000022C4FF0020018BF022D00D170BD012C3F
:1031F0004FF0010008BF012DF8D1002A4FF0010067
:1032000018BF002BF2D061B1081F4FEAB0000328AD
:103210000BD8DFE800F0020E1216022086F83F00FD
:1032200012E0022086F83E000EE0022086F84300FD
:103230000AE0022086F8400006E0022086F84100FD
:1032400002E0022086F84200022041B1082909D09C
:10325000042914BF86F8470086F8450004E086F884
:10326000440001E086F84600D6F800C001F01F05D2
:103270000120DCF8204000FA05F5AC43CCF82040F2
:10328000DCF820404FEAB10125430329CCF8205057
:1032900000F27780DFE801F0021E3954706A46F6CA
:1032A000E151C0F60001C162706A46F65561C0F690
:1032B00000010163706A46F68D61C0F6000141634A
:1032C000706A0CF13401FEF74BF9002850D14FF42D
:1032D000007051E0B06A46F6E151C0F60001C162EB
:1032E000B06A46F65561C0F600010163B06A46F661
:1032F0008D61C0F600014163B06A0CF13801FEF740
:103300002FF9A8BB4FF4806036E0F06A46F6E15131
:10331000C0F60001C162F06A46F65561C0F60001D0
:103320000163F06A46F68D61C0F600014163F06A00
:103330000CF13C01FEF714F9D0B94FF400601BE02A
:10334000306B46F6E151C0F60001C162306B46F6C3
:103350005561C0F600010163306B46F68D61C0F621
:1033600000014163306B0CF14001FEF7F9F808B140
:10337000012070BD4FF480503168CA681043C860A6
:103380000020316842F6FF32C4F2010291420DDCA6
:10339000B1F1804F1CD040F20042C4F200029142D1
:1033A00016D040F60002C4F200020FE042F60042DE
:1033B000C4F2010291420BD044F20002C4F20102B5
:1033C000914205D043F20042C4F2010291420BD176
:1033D0008A680723C0F201031A40062A3FF406AFA9
:1033E000B2F5803F08BF70BD0A6842F001020A6072
:1033F00070BD00002DE9F04190F83C30012B04BF76
:103400000220BDE8F0814FEAB2020123052A80F8CC
:103410003C3000F2C781DFE812F006004F00A20046
:10342000F5004801840103681D6A1A6AA3F1804609
:1034300022F001021A621A465C6852F818CF8F68AF
:10344000A6F59636D1F800E025F002054FEAB6263B
:10345000072E45EA07050AD80127B74017F0E50F00
:103460001FBFCF6825F00C0527F004073D43072E4A
:103470000BD8012707FA06F616F0E50F1FBF24F454
:103480004074D1E9056734433C434FF68C76CFF660
:10349000FE760CEA060747EA0E075C609F614F68FC
:1034A00009695F631D629F6947F008079F619F6913
:1034B00027F004079F6171E1036843F200461D6A2B
:1034C0001A6AC4F2010622F010021A621A46D3F8F0
:1034D00004C052F8188FB3428E68D1F800E025F08E
:1034E000200545EA061505D042F60046C4F201065D
:1034F000B34207D1CE686FF0400725F0C00507EA58
:1035000006163543A3F18046A6F596364FEAB62651
:10351000072E0CD8012707FA06F616F0E50F1FBF95
:10352000D1E905672CF44064374344EA870C48F638
:10353000FF44CFF6FF6404EA080444EA0E27C3F808
:1035400004C09F614F6809699F631D629F6947F4CA
:1035500000679F619F6927F480679F611DE1036891
:1035600043F200461D6A1A6AC4F2010622F4807210
:103570001A621A46D3F804C052F81CEFB3428E68A0
:10358000D1F8008025F4007545EA062505D042F6FD
:103590000046C4F20106B34207D1CE6840F2FF47AD
:1035A000360225F44065BE433543A3F18046A6F5B7
:1035B00096364FEAB626072E0CD8012707FA06F6EC
:1035C00016F0E50F1FBFD1E905672CF440543743CF
:1035D00044EA071C4FF68C74CFF6FE740EEA04071B
:1035E00047EA0807C3F804C0DF614F680969DF6371
:1035F0001D62DF6947F00807DF61DF6927F0040714
:10360000DF61CBE0036843F200461D6A1A6AC4F228
:10361000010622F480521A621A46D3F804C052F806
:103620001C8FB3428E68D1F800E025F4005545EABE
:10363000063505D042F60046C4F20106B34207D172
:10364000CE6844F6FF77360325F44045BE43354344
:10365000A3F18046A6F596364FEAB626072E0CD87B
:10366000012707FA06F616F0E50F1FBFD1E9056737
:103670002CF44044374344EA871C48F6FF44CFF615
:10368000FF6404EA080444EA0E27C3F804C0DF61BB
:103690004F6809691F641D62DF6947F40067DF61D5
:1036A000DF6927F48067DF6177E00368D3F820C023
:1036B0001A6AA3F1804722F480321A621A46A7F5EB
:1036C00096375D6852F8508FD1F800E08E684FEA67
:1036D000B727072F09D80124BC4014F0E50F1EBFFF
:1036E0004C6925F4803545EA04252CF4003747EA77
:1036F00006474FF68C76CFF6FE76033606EA0806C6
:1037000046EA0E065D601E654E6809699E641F628A
:103710001F6D47F008071F651F6D27F004071F6521
:103720003CE00368D3F820C01A6AA3F1804722F472
:1037300080121A621A46A7F596375D6852F8508FC4
:10374000D1F800E08E684FEAB727072F09D8012487
:10375000BC4014F0E50F1EBF4C6925F4802545EAF6
:1037600084252CF4001747EA065748F6FF46CFF6A3
:10377000FF6606F5407606EA080646EA0E265D6014
:103780001E654E680969DE641F621F6D47F400679D
:103790001F651F6D27F480671F65090213681943B1
:1037A00000231160002180F83C101846BDE8F0812C
:1037B000002804BF0120704710B5044690F83D0072
:1037C00028B9002084F83C00204600F023F80220AD
:1037D00084F83D002068211D03F07AFA012084F866
:1037E000480084F83E0084F83F0084F8400084F8E4
:1037F000410084F8420084F8430084F8440084F8CF
:10380000450084F8460084F8470084F83D00002015
:1038100010BD00007047000059B10A1F4FEAB20204
:10382000032A09D8DFE802F0020B0E1100F13F0273
:103830000DE000F13E020AE000F1430207E000F172
:10384000400204E000F1410201E000F1420212787E
:10385000012A1CBF0120704761B10A1F4FEAB20262
:10386000032A0BD8DFE802F0020E1216022280F8BB
:103870003F2012E0022280F83E200EE0022280F873
:1038800043200AE0022280F8402006E0022280F86D
:10389000412002E0022280F84220026801F01F006D
:1038A0000121136A01FA00F083431362136A18437B
:1038B0001062A2F18040A0F596304FEAB02342F6A4
:1038C000FF30062BC4F201003ED8994011F0650F7D
:1038D0003AD0516C824241F4004151640FDCB2F1A4
:1038E000804F1ED040F20040C4F20000824218D047
:1038F00040F60000C4F20000824212D01EE042F600
:103900000040C4F2010082420BD044F20000C4F235
:103910000100824205D043F20040C4F2010082421D
:103920000CD190680721C0F20101014006294FF037
:10393000000008D0B1F5803F08BF7047106840F024
:1039400001001060002070478242C8DD43F6FF711D
:10395000C4F201018A4202DC42F60040D7E744F299
:103960000001C4F201018A42DBD044F60001C4F236
:1039700001018A42ADD0E1E7B0B5044690F83C00C1
:1039800001284FF0020008BFB0BD012584F83C506B
:1039900084F83D00204603F0A7FA00284FF001000C
:1039A00009D12068C16821F04001C160C16821F4DB
:1039B0008041C1600020002184F83D5084F83C1013
:1039C000B0BD000090F88410012904BF02207047A8
:1039D0002421C0F8881002681168136823F00103DD
:1039E000136021F000530021416613602022C0F8CB
:1039F000882080F8841008467047000010B50446FF
:103A0000D0F88C0020281CBF022010BD00294FF0E8
:103A1000010018BF002A1BD00120E06600202067AB
:103A2000204603F0FBFD002818BF10BDE16E012900
:103A30001CBF012010BD216810220A62216851E8D4
:103A4000001F226841F0100142E80013002BF5D15D
:103A500010BD000010B540F25C70C2F200000C46D0
:103A600004F0BEF850B940F25C7040F2D461C2F28A
:103A70000000C2F20001224604F0E0F840F2D460F7
:103A8000C2F200008021FCF7FBFB10BD7047000074
:103A9000B0B590F88420012A04BF0220B0BD0123F4
:103AA000242280F88430C0F888200268D0F864E0CE
:103AB000D2F800C01468BEF1000F24F001041460B5
:103AC000946824F0606441EA040191601BD091681D
:103AD000936848F2D46E5B0FC0F6000E48F2DC65C6
:103AE0001EF80340C0F60005EB5CC1F34261E40040
:103AF000B4FBF3F41EF80130695CDB00B3FBF1F3B7
:103B0000A0F86A4001E0A0F86A302021A0F86830EF
:103B1000C2F800C0C0F88810002180F88410084660
:103B2000B0BD0000B0B590F88420012A04BF022087
:103B3000B0BD0123242280F88430C0F888200268B8
:103B4000D0F864E0D2F800C01468BEF1000F24F091
:103B500001041460946824F0604441EA0401916017
:103B60001BD09168936848F2D46E5B0FC0F6000ECC
:103B700048F2DC651EF80340C0F60005EB5CC1F3BB
:103B80004261E400B4FBF3F41EF80130695CDB0031
:103B9000B3FBF1F3A0F86A4001E0A0F86A302021FD
:103BA000A0F86830C2F800C0C0F88810002180F882
:103BB00084100846B0BD0000704700007047000048
:103BC0007047000070B5036840F62F02D9690446BB
:103BD00018689E680A40202A05D100F0200206F0ED
:103BE0008055521929D140F60F020A400CD001220B
:103BF000C1F2000206EA020C40F22012C0F20042BA
:103C0000024012EB0C0220D1E26E012A06D111F023
:103C1000100218BF10F0100240F0F280CA0240F10A
:103C2000CA8016F4800200F0C6804FF4801120464E
:103C30001962BDE87040FFF7C1BF616F002900F055
:103C400099812046BDE870400847CA0718BF10F4A4
:103C5000807207D001221A62D4F8902042F001024B
:103C6000C4F890208A0706F0010E0AD5BEF1000FB5
:103C700007D002221A62D4F8902042F00402C4F85D
:103C800090204A070AD5BEF1000F07D004221A621D
:103C9000D4F8902042F00202C4F890200A070CD514
:103CA00000F0200252EA0C0207D008221A62D4F86F
:103CB000902042F00802C4F890200A050BD510F0BD
:103CC000806208D04FF400621A62D4F8902042F06B
:103CD0002002C4F89020D4F89020002A00F04A81F5
:103CE00011F020011EBF00F0200006F0805110EB03
:103CF000010040F040812068D4F89010806801F005
:103D0000280100F04000401806D12046FFF758FF78
:103D10000020C4F890002DE1206850E8000F2168D1
:103D200020F4907041E80002002AF5D14FF6FE70B1
:103D3000CEF6FF70216851E8021F2268014042E878
:103D40000213002BF6D1E06E012809D1206850E85B
:103D5000000F216820F0100041E80002002AF5D190
:103D60002020C4F88C000020E06621686067886825
:103D7000400640F1EA8000BF206850E8020F216849
:103D800020F0400041E80202002AF5D1D4F880007A
:103D9000002800F0DA8047F2D911C0F600018163F3
:103DA000FDF7BAFA002800F0E580D4F88000816BB6
:103DB000BDE8704008470A0606D500F0800206F408
:103DC0000003D21840F0C6804A0640F1A68010F0E9
:103DD000400200F0A28000BF206850E8000F216878
:103DE00020F0400041E80002002AF5D12020002107
:103DF000C4F888002046A167BDE8704000F0E2B931
:103E0000102018629868400637D4B4F85C00B4F803
:103E10005E10B4F85E20002A18BF884200F0AA8025
:103E2000401A00BF216851E8001F226821F49071F8
:103E300042E80013002BF5D14FF6FE71CEF6FF716C
:103E4000226852E8022F23680A4043E80226002E27
:103E5000F6D12021C4F88C100021E166616700BF13
:103E6000216851E8001F226821F0100142E8001388
:103E7000002BF5D1022281B261E0D4F88000006805
:103E800041688AB2002A52D0B4F85C309A424ED2CD
:103E9000A4F85E100068800632D400BF206850E8A5
:103EA000000F216820F4807041E80002002AF5D15B
:103EB000206850E8020F216820F0010041E802026A
:103EC000002AF5D1206850E8020F216820F0400058
:103ED00041E80202002AF5D12020C4F88C0000201D
:103EE000E06600BF206850E8000F216820F0100055
:103EF00041E80002002AF5D1D4F88000FDF7D4F99A
:103F000002202067B4F85C00B4F85E10401A81B259
:103F10002046BDE87040FFF79DBD0A021FD510F096
:103F200080421CD02046BDE87040FFF745BEB4F883
:103F30005C1091421ED1006880061BD502222046EB
:103F40002267BDE87040FFF785BD2046BDE87040A0
:103F5000FFF736BEA16F00297FF473AE0AE0C901F6
:103F600008D5B0F1FF3FC8BF70BD2046BDE8704026
:103F7000FFF78CBD70BD616F00293FF4BCAE2046D9
:103F80008847B8E610B5D8B10446D0F8880028B9FB
:103F9000002084F88400204600F026F82420C4F88D
:103FA00088002068A16A026822F00102026011B153
:103FB000204603F03DF8204603F0CAF9012801D15C
:103FC000012010BD2168486820F49040486088684E
:103FD00020F02A008860086840F0010220460A604C
:103FE000BDE8104003F098B870B598B004460025BD
:103FF00002A844211795CDE91555CDE91355FCF7D5
:104000003FF9206843F60001C4F20101884201D063
:1040100018B070BD0120CDE9020502A8FDF744FDEE
:10402000002818BFFCF7A8FC41F24C00C4F20200C3
:104030004169002641F480414161416901F48041B8
:1040400001910199016841F001010160006813A923
:1040500000F00100019001984FF4C060139002201D
:104060001490072017904FF09040CDE91566FDF7AA
:10407000FDFA40F2B0350820C2F20005C4F2020099
:10408000182185E843004FF400508022286228461A
:10409000C5E90362C5E90566EE61FDF7CFF90028C1
:1040A00018BFFCF769FC252001210022C4F88050CC
:1040B000AC62FDF72FFC2520FDF71CFC18B070BD8D
:1040C00070470000704700002DE9F04381B00446BE
:1040D000D0F8880020281FD1884600294FF0010021
:1040E0006CD01646002A69D00020C4F89000212028
:1040F0001D46C4F88800FDF795FBA4F85460A4F8A9
:104100005660A1680646B1F5805F01D1206938B1DB
:10411000C1464FF0000805E0022001B0BDE8F08381
:104120004FF00009B4F8560058B36F1C0EE0B9F117
:10413000000F1DD019F8010B21688862B4F85600F1
:104140000138A4F85600B4F85600D0B12068C06910
:104150000006ECD4002FF9D0FDF764FB01464FF0C8
:10416000030045B3891BA94225D820680068EDE704
:1041700038F8020B21686FF35F2088624FF0000966
:10418000DCE72068C069400614D46F1C04E000BF5F
:104190002068C06940060DD4002FF9D0FDF742FB1E
:1041A00001464FF0030035B1891BA94203D82068AE
:1041B0000068EDE700202021C4F8881001B0BDE8B8
:1041C000F083000070470000FEE7000040F2184155
:1041D000C4F600010A6942F480720A610A6942F475
:1041E00000720A612022C1F8FC230A6942F0200211
:1041F0000A610A6842F020020A600A6842F400720A
:104200000A600A6942F400720A610A6842F4807224
:104210000A600022C1F8FC230B6943F020030B6104
:104220000B6843F020030B600B6843F400730B60D2
:104230000B6943F480730B610B6943F400730B61EA
:104240002123C1F8FC330B6943F020030B610B6899
:1042500043F020030B600B6843F400730B600B69A1
:1042600043F400730B610B6843F480730B60C1F877
:10427000FC230A6942F020020A610A6842F0200227
:104280000A600A6842F400720A600A6942F48072A5
:104290000A610A6942F400720A612222C1F8FC2311
:1042A0000A6942F020020A610A6842F020020A60AC
:1042B0000A6842F400720A604FF496320B69013AC0
:1042C00043F400730B610B6843F480730B60C1F817
:1042D000FC030B6943F020030B610B6843F02003E0
:1042E0000B600B6843F400730B60E7D1704700006C
:1042F0002DE9F04F8BB0002641F24C000596CDE938
:104300000366CDE90166C4F20200016840F2184577
:1043100041F0040101600168C4F6000501F00401E8
:1043200006910699016801AC41F001010160016844
:1043300040F6140901F00101069106990168C4F6DE
:10434000000941F0020101600068214600F002000E
:10435000069006984FF44870019001200290A5F154
:1043600018000127CDE90366FDF780F94FF480704E
:10437000CDE901074FF090402146CDE90366FDF7F6
:1043800075F94FF6FF7005F57A7406904FF0030843
:1043900006A920460A9608964FF6FF7B0797CDF8A8
:1043A0002480FDF763F94FF6004ACFF6FF7A55F8FF
:1043B0000A0006A940F4807045F80A0028684FF604
:1043C000FF7740F408702860286940F40070286185
:1043D000286940F480702861286840F02000286037
:1043E000C9F80060286940F02000286100BF00BFC4
:1043F00000BF286840F020002860286840F48070E2
:10440000286020460A960896CDE906B6CDF82480A5
:10441000FDF72CF94FF6104BCFF6FF7B55F80B004C
:1044200006A940F4807045F80B0000BF00BF00BF34
:10443000D5F8F89355F80A0040F4807045F80A0062
:1044400001200A960896079020460697CDF824800A
:10445000FDF70CF9286848F2302140F4007028601C
:1044600040F2B410C2F20000A0F800900088884228
:1044700002D100F07BFC01E001F0B2F928690026CE
:1044800040F40070286128694FF6FF7840F480708E
:10449000286128684FF0030940F02000286040F6AA
:1044A0001400C4F600000660286906A940F0200048
:1044B000286100BF00BF00BF286840F020002860CE
:1044C000286840F48070286020460A96CDE9076687
:1044D000CDF81880CDF82490FDF7C8F855F80B00FA
:1044E00006A940F4807045F80B0000BF00BF00BF74
:1044F000D5F8F87355F80A0040F4807045F80A00C2
:1045000001200A96089607902046CDF81880CDF82D
:104510002490FDF7ABF8286840F40070286040F262
:10452000B410C2F2000007800BB0BDE8F08F0000AD
:1045300081B0ADF80200BDF8020040F20401C2F201
:104540000001088001B0704781B0ADF80200BDF8ED
:10455000020040F27401C2F20001088001B070470D
:1045600010B58CB040F2B810C2F200004FF0A0417C
:1045700000244FF4403280E816004FF48071042389
:10458000818301210B94CDE90944CDE90744CDE9AC
:104590000544CDE90344CDE90144C0E90344C0E941
:1045A0000543016280F82440C0E90B4480F83810CC
:1045B000C46380F84040FCF731FC002818BFFCF7CA
:1045C000DBF940F2B810C2F2000009A90994FCF727
:1045D00023FA002818BFFCF7CFF940F60000C2F616
:1045E0003060019006207F21029000200491042178
:1045F0000390CDE9051040F2B810C2F2000001A905
:10460000FCF76AFA002818BFFCF7B6F90CB010BD29
:10461000B0B588B040F2242040F20011C2F2000090
:10462000C5F2000100244FF4403280E816004FF438
:104630008071042581830121CDE90644CDE904443C
:10464000CDE90244CDE90044C0E90344C0E9054591
:10465000016280F82440C0E90B4480F83810C4633C
:1046600080F84040FCF7DAFB002818BFFCF784F91B
:1046700048F20000C3F6F06000900620CDE9010486
:104680007F20CDE9030540F22420C2F200006946F4
:104690000594FCF721FA002818BFFCF76DF908B063
:1046A000B0BD000080B582B041F24800C4F2020003
:1046B0000168002241F004010160016801F0040179
:1046C00001910199016841F0010101600068012137
:1046D00000F00100009000980B20FDF71BF90B2063
:1046E000FDF708F90C2001210022FDF713F90C2039
:1046F000FDF700F90D2001210022FDF70BF90D2037
:10470000FDF7F8F80E2001210022FDF703F90E2035
:1047100002B0BDE88040FDF7EDB800002DE9F04F94
:1047200087B0002441F24C000694CDE90444CDE961
:104730000244C4F20200016840F2004841F0040162
:1047400001600168C4F6000801F0040101910199BB
:10475000016808F5806741F02001016001680122CD
:1047600001F02001019101990168012641F0010148
:104770000160016801F0010101910199016841F0B6
:1047800002010160016801F00201019101990168D3
:1047900041F00801016000684FF47F4100F008001B
:1047A000019001983846FDF737F83846F02100228D
:1047B000FDF732F84FF090404FF4807100224FF433
:1047C000807BFDF729F808F500694846042100229E
:1047D0004FF0040AFDF720F840464FF478710022AC
:1047E000FDF71AF84FF6F07002ADCDE90206384633
:1047F0002946CDE90444FCF739FF4FF090402946A3
:10480000CDE902640496FCF731FF072002A951C1EB
:1048100040462946FCF72AFF4FF090402946CDE953
:1048200002B6CDE90444FCF721FF48462946CDE90C
:1048300002A6CDE90444FCF719FF4FF44870CDE916
:10484000020640462946CDE90444FCF70FFFC0208C
:10485000CDE9020603200590404629460496FCF760
:1048600005FF07B0BDE8F08F10B586B040F21040EC
:1048700042F600010024C2F20000C4F200017F22CF
:104880004FF0804CC0E9001400F10801CDE9044468
:10489000CDE90244CDE90044FF231CC1C0E9054431
:1048A000C0E907C4FDF7F0FE002818BFFCF764F864
:1048B00043F61730ADF8040037208DF8060040F2BB
:1048C0001040C2F2000001A900220294CDE9044484
:1048D000FEF71EF8002818BFFCF74EF840F2011052
:1048E000C0F20100009040F21040C2F200006946A0
:1048F0000022FDF769FF002818BFFCF73DF806B05D
:1049000010BD000070B5A2B0002401A83421CDE98B
:104910001A44CDE91844CDE91644CDE91444CDE953
:104920001244CDE91044CDE90E44FBF7A9FC40F256
:10493000384042F60045C2F20000C4F20105A92148
:1049400040F2E732C0E90051C0E90242C0E9044444
:104950008461FEF765F9002818BFFCF70DF84FF4E5
:104960008050189040F23840C2F2000018A9FEF7BB
:1049700009FA002818BFFBF7FFFF40F23840C2F2E7
:104980000000FEF715FF002818BFFBF7F5FF40F207
:1049900038400024C2F2000015A9CDE9154417944F
:1049A000FEF7EAF8002818BFFBF7E6FF60200E903C
:1049B0003220CDE90F0440F23840C2F200000EA9C7
:1049C0000022CDE91144CDE91344FEF713FD002880
:1049D00018BFFBF7D1FF00264FF4005040F23844D7
:1049E000CDE906064FF00070C2F20004CDE90A06D8
:1049F00001A920460596CDE90366CDE90166CDE91A
:104A00000866CDE90C66FEF74FF8002818BFFBF7E3
:104A1000B3FF20682196B0F1804FCDE91F661E9646
:104A20001D9615D0A8422ED141F24C00C4F20200CE
:104A30000168012241F0040101600068022100F0D8
:104A400004001C901C9840F60000C4F6000010E022
:104A500041F24C00C4F202000168022241F001015F
:104A600001600068012100F001001C901C984FF0CB
:104A700090401D9202221E92002221911DA9CDE993
:104A80001F22FCF7F3FD22B070BD000010B594B0FA
:104A900040F284400021C2F200004FF08042A9237E
:104AA00040F2E734CDE90C11CDE90A11CDE9081146
:104AB000CDE90611CDE90411CDE90211CDE90011CE
:104AC000C0E90023C0E9021401618161FEF7A8F882
:104AD000002818BFFBF750FF4FF480500A9040F2B7
:104AE0008440C2F200000AA9FEF74CF9002818BF62
:104AF000FBF742FF40F28440C2F20000FEF758FE8E
:104B0000002818BFFBF738FF40F284400024C2F2AF
:104B1000000007A907940994FEF72EF8002818BF93
:104B2000FBF72AFF602000903220CDE901040494B5
:104B300040F28444C2F20004694620460422FEF793
:104B400059FC002818BFFBF717FF20680021B0F1BF
:104B5000804F1391CDE9111110910F9119D042F6A8
:104B60000041C4F2010188422ED141F24C00C4F24E
:104B700002000168012241F0040101600068022185
:104B800000F004000E900E9840F60000C4F60000FD
:104B900010E041F24C00C4F202000168022241F030
:104BA000010101600068012100F001000E900E98E3
:104BB0004FF090400F9202221092002213910FA901
:104BC000CDE91122FCF752FD14B010BD10B590B024
:104BD00040F2D04040F200420021C2F20000C4F294
:104BE00000024F234FF6FF74CDE90E11CDE90C11F1
:104BF000CDE90A11CDE90811CDE90611CDE904117D
:104C0000CDE90211CDE90011C0E90023C0E9021489
:104C100001618161FEF704F8002818BFFBF7ACFEC4
:104C20004FF480500C9040F2D040C2F200000CA92A
:104C3000FEF7A8F8002818BFFBF79EFE40F2D04010
:104C4000C2F20000FEF76AFA002818BFFBF794FED4
:104C5000042007905020089040F2D0400024C2F277
:104C6000000007A909940B94FEF786FE002818BFE0
:104C7000FBF782FE40F2D040C2F2000004A9049487
:104C80000694FDF779FF002818BFFBF775FE00209A
:104C900001210090CDE90110039040F2D040C2F212
:104CA000000069460022FEF76FF9002818BFFBF7E5
:104CB00063FE10B010BD000080B540F21C5043F6FA
:104CC0000001C2F20000C4F2010100234FF00C0CFD
:104CD0004FF4165280E80E00C0E90333C0E905C363
:104CE000C0E90733C0E90933FFF74CF9002818BFC2
:104CF000FBF742FE40F21C50C2F200000021FEF71A
:104D000011FF002818BFFBF737FE40F21C50C2F21B
:104D100000000021FEF7BCFE002818BFFBF72CFEA8
:104D200040F21C50C2F20000FEF74CFE002818BFF3
:104D3000FBF722FE40F21C5040F2D461C2F20000A8
:104D4000C2F200018022FEF759FE40F2B030C2F2FA
:104D500000000068016821F00401016080BD0000CE
:104D6000FEE70000FEE700007047000040F2184038
:104D7000C4F600000169002241F4807101610169FB
:104D80004FF0030C41F400710161C0F8FC2301698C
:104D900041F020010161016841F0200101600168DA
:104DA00041F400710160016941F400710161016821
:104DB00041F4807101600121C0F8FC13036943F0E4
:104DC00020030361036843F020030360036843F496
:104DD00000730360036943F480730361036943F460
:104DE00000730361C0F8FC13036943F020030361FF
:104DF000036843F020030360036843F40073036017
:104E0000036943F400730361036843F48073036030
:104E1000C0F8FC23026942F020020261026842F0FD
:104E200020020260026842F400720260026942F4E9
:104E300080720261026942F4007202611022C0F8BD
:104E4000FC23026942F020020261026842F0200263
:104E50000260026842F400720260026942F4007269
:104E60000261026842F48072026041F29072C0F8FE
:104E7000FC23026942F020020261026842F0200233
:104E80000260026842F400720260026942F48072B9
:104E90000261026942F4007202616022C0F8FC23E0
:104EA000026942F020020261026842F020020260C0
:104EB000026842F400720260026942F40072026108
:104EC000026842F4807202604FF41C52C0F8FC2366
:104ED000026942F020020261026842F02002026090
:104EE000026842F400720260026942F48072026158
:104EF000026942F4007202616122C0F8FC23026977
:104F000042F020020261026842F020020260026860
:104F100042F400720260026942F4007202610268A7
:104F200042F480720260C0F8FC13016941F0200174
:104F30000161016841F020010160016841F40071E4
:104F40000160016941F480710161016941F40071FE
:104F500001614621C0F8FC13016941F020010161A3
:104F6000016841F020010160016841F400710160B5
:104F7000016941F400710161016841F480710160CF
:104F80000221C0F8FC13026942F0200202610268AB
:104F900042F020020260026842F40072026002697C
:104FA00042F480720261026942F4007202611322CB
:104FB000C0F8FC23026942F020020261026842F05C
:104FC00020020260026842F400720260026942F448
:104FD00000720261026842F48072026048F21002BC
:104FE000C0F8FC23026942F020020261026842F02C
:104FF00020020260026842F400720260026942F418
:1050000080720261026942F4007202611222C0F8E9
:10501000FC23026942F020020261026842F0200291
:105020000260026842F400720260026942F4007297
:105030000261026842F48072026048F2FE02C0F827
:10504000FC23026942F020020261026842F0200261
:105050000260026842F400720260026942F48072E7
:105060000261026942F400720261C0F8FC13016936
:1050700041F020010161016841F0200101600168F7
:1050800041F400710160016941F40071016101683E
:1050900041F4807101604FF4A061C0F8FC13016914
:1050A00041F020010161016841F0200101600168C7
:1050B00041F400710160016941F48071016101698D
:1050C00041F400710161C0F8FCC3026942F02002A2
:1050D0000261026842F020020260026842F400723B
:1050E0000260026942F400720261026842F4807256
:1050F000026041F23002C0F8FC23026942F0200253
:105100000261026842F020020260026842F400720A
:105110000260026942F480720261026942F4007224
:1051200002613022C0F8FC23026942F020020261D1
:10513000026842F020020260026842F400720260DB
:10514000026942F400720261026842F480720260F5
:1051500040F20332C0F8FC23036943F020030361EB
:10516000036843F020030360036843F400730360A3
:10517000036943F480730361036943F400730361BB
:105180003123C0F8FC33036943F020030361036853
:1051900043F020030360036843F400730360036972
:1051A00043F400730361036843F480730360C0F841
:1051B000FC23036943F020030361036843F02003E9
:1051C0000360036843F400730360036943F480736E
:1051D0000361036943F4007303613223C0F8FC33B5
:1051E000036943F020030361036843F02003036075
:1051F000036843F400730360036943F400730361BD
:10520000036843F480730360C0F8FC23036943F030
:1052100020030361036843F020030360036843F441
:1052200000730360036943F480730361036943F40B
:10523000007303613323C0F8FC33036943F0200398
:105240000361036843F020030360036843F40073C1
:105250000360036943F400730361036843F48073DC
:1052600003604FF44073C0F8FC33016941F0200142
:105270000161016841F020010160016841F40071A1
:105280000160016941F480710161016941F40071BB
:1052900001613421C0F8FC13016941F02001016172
:1052A000016841F020010160016841F40071016072
:1052B000016941F400710161016841F4807101608C
:1052C000C0F8FCC3016941F020010161016841F0AF
:1052D00020010160016841F400710160016941F43D
:1052E00080710161016941F4007101613521C0F8EB
:1052F000FC13016941F020010161016841F02001C6
:105300000160016841F400710160016941F40071BC
:105310000161016841F480710160C0F8FC230169FA
:1053200041F020010161016841F020010160016844
:1053300041F400710160016941F48071016101690A
:1053400041F4007101613621C0F8FC13016941F09C
:1053500020010161016841F020010160016841F410
:1053600000710160016941F400710161016841F45B
:10537000807101601421C0F8FC13016941F0200123
:105380000161016841F020010160016841F4007190
:105390000160016941F480710161016941F40071AA
:1053A00001613721C0F8FC13016941F0200101615E
:1053B000016841F020010160016841F40071016061
:1053C000016941F400710161016841F4807101607B
:1053D000C0F8FC23016941F020010161016841F03E
:1053E00020010160016841F400710160016941F42C
:1053F00080710161016941F4007101613821C0F8D7
:10540000FC13016941F020010161016841F02001B4
:105410000160016841F400710160016941F40071AB
:105420000161016841F480710160C0F8FC230169E9
:1054300041F020010161016841F020010160016833
:1054400041F400710160016941F4807101610169F9
:1054500041F4007101613921C0F8FC13016941F088
:1054600020010161016841F020010160016841F4FF
:1054700000710160016941F400710161016841F44A
:1054800080710160C0F8FC23016941F020010161D5
:10549000016841F020010160016841F40071016080
:1054A000016941F480710161016941F40071016198
:1054B0003A21C0F8FC13016941F020010161016843
:1054C00041F020010160016841F40071016001694F
:1054D00041F400710161016841F480710160C0F81C
:1054E000FC33016941F020010161016841F02001B4
:1054F0000160016841F400710160016941F480714B
:105500000161016941F4007101613B21C0F8FC13A4
:10551000016941F020010161016841F02001016051
:10552000016841F400710160016941F40071016199
:10553000016841F480710160C0F8FCC3016941F069
:1055400020010161016841F020010160016841F41E
:1055500000710160016941F480710161016941F4E8
:10556000007101613C21C0F8FC13016941F0200188
:105570000161016841F020010160016841F400719E
:105580000160016941F400710161016841F48071B9
:105590000160C0F8FC23016941F02001016101684C
:1055A00041F020010160016841F40071016001696E
:1055B00041F480710161016941F4007101613D2193
:1055C000C0F8FC13016941F020010161016841F05C
:1055D00020010160016841F400710160016941F43A
:1055E00000710161016841F4807101604FF4A051C4
:1055F000C0F8FC13016941F020010161016841F02C
:1056000020010160016841F400710160016941F409
:1056100080710161016941F4007101619221C0F85A
:10562000FC13016941F020010161016841F0200192
:105630000160016841F400710160016941F4007189
:105640000161016841F4807101604FF40071C0F89C
:10565000FC13016941F020010161016841F0200162
:105660000160016841F400710160016941F48071D9
:105670000161016941F4007101619321C0F8FC13DB
:10568000016941F020010161016841F020010160E0
:10569000016841F400710160016941F40071016128
:1056A000016841F480710160C0F8FC23016941F098
:1056B00020010161016841F020010160016841F4AD
:1056C00000710160016941F480710161016941F477
:1056D000007101619021C0F8FC13016941F02001C3
:1056E0000161016841F020010160016841F400712D
:1056F0000160016941F400710161016841F4807148
:10570000016040F60D01C0F8FC13016941F0200171
:105710000161016841F020010160016841F40071FC
:105720000160016941F480710161016941F4007116
:105730000161C0F8FCC3016941F020010161016809
:1057400041F020010160016841F4007101600169CC
:1057500041F400710161016841F48071016041F21E
:105760001801C0F8FC13016941F0200101610168D2
:1057700041F020010160016841F40071016001699C
:1057800041F480710161016941F4007101610721F7
:10579000C0F8FC13016941F020010161016841F08A
:1057A00020010160016841F400710160016941F468
:1057B00000710161016841F48071016040F2731170
:1057C000C0F8FC13016941F020010161016841F05A
:1057D00020010160016841F4007101607047000020
:1057E0002DE9F04F81B040F21844C4F6000420695E
:1057F0004FF0120940F4807020612069002540F4C8
:1058000000702061E320C4F8FC032069112640F0F9
:105810002000206120684FF0130B40F02000206032
:105820002068102740F40070206020694FF00708BE
:1058300040F400702061206840F48070206043F2E2
:105840000800C4F8FC03206940F0200020612068B3
:1058500040F020002060206840F400702060206943
:1058600040F480702061206940F400702061E720DE
:10587000C4F8FC03206940F020002061206840F05B
:1058800020002060206840F400702060206940F40F
:1058900000702061206840F480702060C4F8FC93A0
:1058A000206940F020002061206840F02000206046
:1058B000206840F400702060206940F4807020610E
:1058C000206940F400702061EF20C4F8FC032069D7
:1058D00040F020002061206840F020002060206817
:1058E00040F400702060206940F40070206120685E
:1058F00040F48070206041F23120C4F8FC0320693C
:1059000040F020002061206840F0200020602068E6
:1059100040F400702060206940F4807020612069AC
:1059200040F4007020610120C4F8FC03206940F0BD
:1059300020002061206840F020002060206840F4B2
:1059400000702060206940F400702061206840F4FD
:1059500080702060C4F8FC53206940F02000206172
:10596000206840F020002060206840F40070206033
:10597000206940F480702061206940F4007020614B
:105980000220C4F8FC03206940F020002061206858
:1059900040F020002060206840F400702060206902
:1059A00040F400702061206840F4807020604FF463
:1059B000E060C4F8FC03206940F02000206120680A
:1059C00040F020002060206840F4007020602069D2
:1059D00040F480702061206940F400702061032051
:1059E000C4F8FC03206940F020002061206840F0EA
:1059F00020002060206840F400702060206940F49E
:105A000000702061206840F48070206041F2300016
:105A1000C4F8FC03206940F020002061206840F0B9
:105A200020002060206840F400702060206940F46D
:105A300080702061206940F4007020610420C4F867
:105A4000FC03206940F020002061206840F0200025
:105A50002060206840F400702060206940F40070ED
:105A60002061206840F480702060C4F8FC532069F5
:105A700040F020002061206840F020002060206875
:105A800040F400702060206940F48070206120693B
:105A900040F4007020610820C4F8FC03206940F045
:105AA00020002061206840F020002060206840F441
:105AB00000702060206940F400702061206840F48C
:105AC0008070206040F20720C4F8FC03206940F099
:105AD00020002061206840F020002060206840F411
