:020000040800F2
:10000000B0070020ED010008D9320008BF2D00081C
:10001000D532000811030008413B00080000000031
:100020000000000000000000000000001D34000877
:10003000AD03000800000000DD3200081F34000896
:10004000070200080702000807020008070200086C
:10005000070200080702000807020008070200085C
:10006000070200080702000807020008150300083D
:1000700025030008350300080702000807020008EE
:100080000702000800000000F9020008070200084B
:10009000070200080702000807020008070200081C
:1000A000070200080702000807020008070200080C
:1000B00007020008070200080702000807020008FC
:1000C00007020008070200080702000807020008EC
:1000D00007020008313B0008070200080702000879
:1000E00007020008070200080702000807020008CC
:1000F00007020008070200080702000800000000CD
:1001000000000000070200080000000007020008CD
:1001100007020008000000000702000807020008AC
:10012000070200080702000807020008070200088B
:10013000070200080000000000000000070200089D
:10014000070200080702000800000000000000008D
:10015000000000000000000000000000000000009F
:10016000000000000000000000000000070200087E
:10017000070200080000000000000000000000006E
:10018000000000000702000800000000000000005E
:10019000000000000000000000000000000000005F
:1001A000000000000000000007020008070200082D
:1001B000070200080702000807020008000000000C
:1001C000000000000702000800000000000000001E
:1001D0000702000807020008DFF80CD000F07AF8E8
:1001E000004800479B3B0008B007002006488047B6
:1001F00006480047FEE7FEE7FEE7FEE7FEE7FEE70C
:10020000FEE7FEE7FEE7FEE791340008D9010008AB
:100210002DE9F05F0546002092469B46884606463B
:10022000814640241BE0284641464746224600F0CE
:1002300041F853465A46C01A914110D31146184608
:10024000224600F028F82D1A67EB01084F46224697
:100250000120002100F01FF817EB00094E41201E7D
:10026000A4F10104DFDC484631462A464346BDE896
:10027000F09FD2B201E000F8012B491EFBD270477B
:100280000022F6E710B513460A4604461946FFF762
:10029000F0FF204610BD202A04DB203A00FA02F1CC
:1002A000002070479140C2F1200320FA03F3194364
:1002B00090407047202A04DB203A21FA02F0002106
:1002C000704721FA02F3D040C2F120029140084366
:1002D00019467047064C074D06E0E06840F0010300
:1002E00094E8070098471034AC42F6D3FFF778FF44
:1002F000543C0008743C000810B5034800F06CFB47
:10030000024800F069FB10BD1400002080000020AE
:1003100000BFFEE710B5024800F095FF10BD0000D9
:10032000E402002010B5024800F08DFF10BD00006F
:10033000EC00002010B5024800F085FF10BD000061
:100340004C01002030B50E4D0468AC4201D20D497D
:1003500001E00C4920310B460478083C1425B4FB1D
:10036000F5F2446CA40803EB84048464054C8034E7
:10037000C46402F01F050124AC40046530BD0000D8
:10038000080402400008024001794A1E064B03EBB4
:1003900082024265044A403282654A1E02F01F030F
:1003A00001229A40C265704700090240704772B648
:1003B00000BFFEE770477047704770477047000006
:1003C0002DE9F0439BB004460E464FF0000830681C
:1003D00000B100BF00BF94F85800012803D10220EB
:1003E0001BB0BDE8F083012084F8580000BF002056
:1003F000179018902068B0F1A04F02D131480090BA
:1004000001E000200090009850B9E06D40F020001D
:10041000E06500BF002084F8580000BF0120DFE73E
:10042000009802F0F5FC0746206802F0F1FCD8BB0A
:10043000D7BB254D306800B394F83800716841EAA5
:100440004030A96821F460410843A8604FF0A04003
:1004500002F0CFFC81461B4802F0CBFC49EA0009C0
:10046000B9F1000F27D1B16830680843A96840F698
:100470001F7291430843A8601DE0A86820F4604003
:10048000A8604FF0A04002F0B4FC81460D4802F095
:10049000B0FC49EA0009B9F1000F0CD1A86840F698
:1004A0001F718843A86006E0FFE7E06D40F0200080
:1004B000E0654FF0010800BF002084F8580000BF3D
:1004C00040468DE700010050000300502DE9F84F31
:1004D00005460C464FF0000A00200090FE49E068F7
:1004E000884200D000E000BF00BF95F85800012806
:1004F00002D10220BDE8F88F012085F8580000BF26
:10050000286802F080FC00287DD12968D4E9002009
:1005100001F1300CC0F3012B0CEB8B03D3F800C0BE
:1005200000F01F0E4FF01F0B0BFA0EFB2CEA0B0C0A
:1005300000F01F0BC2F3846E0EFA0BFE4CEA0E0C99
:10054000C3F800C000BF286802F05DFC814628683F
:1005500002F045FC8046B9F1000F64D1B8F1000FFC
:10056000FBD1A068B0F1004F0AD1216800222868B1
:1005700002F05CFC4FF00041286802F07CFC08E0CF
:10058000A2682168286802F051FC0021286802F066
:1005900072FC60692968C968C1F3C101490000FAA9
:1005A00001F7206904283FD028682268216900F1FA
:1005B000600C0CEB8103D3F800C0DFF820B30CEA29
:1005C0000B0C02F0F84B4BF0004B4BEA070B4CEADC
:1005D0000B0CC3F800C000BF2868A269216900F1B4
:1005E000600C0CEB8103D3F800C02CF0807C4CEA4B
:1005F000020CC3F800C000BF2868227F2169012ACD
:1006000002D1520601E0C6E10022134600F1600C5F
:100610000CEB8102D2F800C02CF0007C4CEA030CF9
:10062000C2F800C000BFA7E00021286802F0CEFB9E
:10063000C0F3120030B90021286802F0C7FBC0F3F4
:10064000846007E00021286802F0C0FB90FAA0F067
:10065000B0FA80F02168C1F3120119B92168C1F321
:10066000846104E0216891FAA1F1B1FA81F1884234
:1006700004D100221146286802F0F2FB012128680B
:1006800002F0A4FBC0F3120030B90121286802F087
:100690009DFBC0F3846007E00121286802F096FB0F
:1006A00090FAA0F0B0FA80F02168C1F3120119B9F4
:1006B0002168C1F3846104E0216891FAA1F1B1FAE3
:1006C00081F1884204D100220121286802F0C8FB90
:1006D0000221286802F07AFBC0F3120030B902212F
:1006E000286802F073FBC0F3846007E002212868E9
:1006F00002F06CFB90FAA0F0B0FA80F02168C1F330
:10070000120119B92168C1F3846104E0216891FAEA
:10071000A1F1B1FA81F1884204D1002202212868B6
:1007200002F09EFB0321286802F050FBC0F3120088
:1007300030B90321286802F049FBC0F3846007E068
:100740000321286802F042FB90FAA0F0B0FA80F092
:100750002168C1F3120119B92168C1F3846104E071
:10076000216891FAA1F1B1FA81F1884204D1002205
:100770000321286802F074FB286802F035FB00288A
:1007800072D12868E2682168D0F8B030C1F3120C49
:1007900023EA0C0302F0180BDFF844C12CFA0BFC1F
:1007A0000CEA010C43EA0C03C0F8B03000BF4A4920
:1007B000E068884258D12368C3F312031BB9236849
:1007C000C3F3846304E0236893FAA3F3B3FA83F3D7
:1007D0005B1C03F01F03092B3ED82368C3F31203ED
:1007E0001BB92368C3F3846304E0236893FAA3F37B
:1007F000B3FA83F35B1C03F01F034FF0010C0CFAF8
:1008000003FC2368C3F312031BB92368C3F3846397
:1008100004E0236893FAA3F3B3FA83F35B1C03F0B9
:100820001F034CEA836C2368C3F312031BB92368CC
:10083000C3F3846304E0236893FAA3F3B3FA83F366
:100840005B1C03F01F0303EB43034FF0000B4BEA69
:1008500003534CEA030347E02368C3F3120323B9AD
:100860002368C3F3846305E043E0236893FAA3F3AA
:10087000B3FA83F35B1C03F01F034FF0010C0CFA77
:1008800003FC2368C3F312031BB92368C3F3846317
:1008900004E0236893FAA3F3B3FA83F35B1C03F039
:1008A0001F034CEA836C2368C3F312031BB923684C
:1008B000C3F3846304E0236893FAA3F3B3FA83F3E6
:1008C0005B1C03F01F030A3B03EB43034FF0007B69
:1008D0004BEA035306E0000000007F4000F0FF03F6
:1008E000FFFF07004CEA03031946A268286802F0DC
:1008F0009DFA2F492068084050B300BF2D488068FA
:1009000000F0E07600BF2C492068884203D02B49D4
:10091000206888421DD106F40000D0B92868B0F1E3
:10092000A04F3ED146F40001224802F093FA244839
:1009300000682449B0FBF1F0401C00EB400080004F
:10094000009002E00098401E009000980028F9D125
:1009500027E01D49206888420CD106F0807048B914
:100960001A49286888421CD046F08071114802F06C
:1009700071FA16E016492068884212D106F4800008
:1009800078B91249286888420BD046F4800109489A
:1009900002F060FA05E0E86D40F02000E8654FF0F5
:1009A000010A00BF002085F8580000BF5046A1E5AD
:1009B0000000088000030050000021C31000C09018
:1009C00010000020400D0300000052C7000100503D
:1009D000000084CB704770472DE9F84F0446002093
:1009E00000902068056820684668C54802F0E9F96B
:1009F000074605F00200022811D106F00200022885
:100A00000DD1E06D00F0100018B9E06D40F4006009
:100A1000E0652046FFF7CEFC02202168086005F063
:100A20000400042803D106F00400042807D005F0D0
:100A3000080008285FD106F0080008285BD1E06DA7
:100A400000F0100018B9E06D40F40070E065206817
:100A500002F0E3F9002848D0AA492068884202D170
:100A60004FF0A04000E020682168884204D01FB108
:100A7000052F01D0092F03D12068D0F80C800AE09F
:100A8000A0492068884202D14FF0A04000E02068D1
:100A90008346DBF80C8008F40050B0F5005F24D0EA
:100AA0002068006800F0080008281ED1206802F0C5
:100AB000AAF990B92068406820F00C0021684860CD
:100AC000E06D20F48070E065E06D00F4805060B966
:100AD000E06D40F00100E06507E0E06D40F01000DF
:100AE000E065206E40F0010020662046FFF772FFAF
:100AF0000C202168086005F02000202803D106F0B2
:100B00002000202807D005F04000402872D106F0D0
:100B1000400040286ED1E06D00F0100018B9E06D83
:100B200040F40050E0652068C16C01F4C07109B95F
:100B3000012100E000218A4600BF206802F06DF923
:100B4000814670492068884202D14FF0A04000E001
:100B500020682168884204D01FB1062F01D0072FDA
:100B600003D12068D0F80C800AE0664920688842EA
:100B700002D14FF0A04000E020688346DBF80C80F3
:100B8000BAF1000F30D008F0007028B1B9F1000FB1
:100B90002AD008F4005038BB2068006800F04000FC
:100BA000402821D108F40010F0B9206802F017F9AC
:100BB00090B92068406820F0600021684860E06DCE
:100BC00020F48050E065E06D00F4807060B9E06D65
:100BD00040F00100E06507E0E06D40F01000E065E6
:100BE000206E40F0010020662046FFF7E4FB602005
:100BF0002168086005F0800080280DD106F0800093
:100C0000802809D1E06D40F48030E065204600F096
:100C1000AFF980202168086005F48070B0F5807F0E
:100C20000FD106F48070B0F5807F0AD1E06D40F4FA
:100C30000030E0652046FFF7C0FB4FF4807021686C
:100C4000086005F40070B0F5007F0FD106F4007065
:100C5000B0F5007F0AD1E06D40F48020E0652046C9
:100C6000FFF7ACFB4FF400702168086005F010003E
:100C700010282AD106F01000102826D1E06B10B9F8
:100C80000120009010E047B100BF1D48806800F4CB
:100C9000604048B10120009006E02068C06800F084
:100CA000010008B101200090009801280AD1E06DF0
:100CB00040F48060E065206E40F00200206620462F
:100CC000FFF789FE10202168086005F48060B0F508
:100CD000806F13D106F48060B0F5806F0ED1E06DA7
:100CE00040F48040E065206E40F0080020664FF43C
:100CF0008060216808602046FFF75EFBBDE8F88F42
:100D000000030050000100502DE9F84F04464FF059
:100D100000090020009014B90120BDE8F88F606937
:100D200020B194F82400012800D100BFE06D30B953
:100D3000204600F01FF90020206684F85800206843
:100D40008168C1F3407131B120688168814A1140E6
:100D5000816000BF00BF206802F050F8B0B9206881
:100D600081687D4A114041F08051816000BF7B481D
:100D700000687B49B0FBF1F0401C4000009002E0AD
:100D80000098401E009000980028F9D1206802F0D9
:100D900035F848B9E06D40F01000E065206E40F095
:100DA000010020664FF00109206802F02CF8064689
:100DB000E06D00F0100000287CD1002EFCD1E06D29
:100DC00020F4807040F00200E065206802F00CF82A
:100DD000B0B94FF0A04002F007F88246614802F037
:100DE00003F84AEA000ABAF1000F09D160685E49C7
:100DF000896821F47C1101435B4A916000BF00BF08
:100E0000607FE16B41EA4030E1680843A168084334
:100E100094F8241040EA014594F82400012803D1F5
:100E2000208D401E45EA4045E06A28B1A08D00F4BF
:100E30007870216B084305432068C0684B4908401F
:100E400028432168C8602068006920F04060616B19
:100E5000084321680861206801F0D5FF80462068BA
:100E600001F0BDFF0746B8F1000F50D1F7BB207F5E
:100E7000002141EA803194F8380041EA40052068B9
:100E8000C06844F20201884328432168C860206991
:100E900088B12068006940F48030216808612068CA
:100EA000D0F8C0006FF30D00216908432168C1F834
:100EB000C0000EE045E02068006920F48030216821
:100EC00008612068D0F8C0006FF30D002168C1F8F8
:100ED000C00094F84000012813D1606C40F001017B
:100EE000A06C0843E16C0843216D00E00FE008436B
:100EF0002168096940F2FC72914308432168086146
:100F000005E02068006920F001002168086160693F
:100F1000012809D12068006B20F00F00216A491ECA
:100F200008432168086305E02068006B20F00F008B
:100F300021680863E06D20F0020040F00100E065E8
:100F400005E0E06D40F01000E0654FF00109484613
:100F5000E3E60000C0FFFF5FC0FFFF7F100000203E
:100F6000400D030000010050000300500740F0FF57
:100F70007047000010B598B00446142113A8FFF77D
:100F80007FF9442102A8FFF77BF92068B0F1A04F58
:100F90005FD14FF4004002908003119002A800F04E
:100FA00097FC08B1FFF703FA5D480068401C5C49F4
:100FB00008600846006801280DD100BF5948C06C80
:100FC00040F400505749C8640846C06C00F4005013
:100FD000019000BF00BF00BF5248C06C40F002004B
:100FE0005049C8640846C06C00F00200019000BF80
:100FF00000BF88141390032014900020159013A9AB
:10100000494800F007FA4948494908600520486006
:10101000002147488160C1608021016189004161F0
:10102000490081612021C161C901016200F08AF992
:1010300008B1FFF7BCF900BF3D486065846200BF9E
:1010400000220221122000F05BFB122000F044FB82
:1010500063E03849206888425FD1C0010290800374
:10106000119002A800F034FC08B1FFF7A0F92C4859
:101070000068401C2A4908600846006801280DD114
:1010800000BF2848C06C40F400502649C864084698
:10109000C06C00F40050019000BF00BF00BF2148A9
:1010A000C06C40F002001F49C8640846C06C00F0E4
:1010B0000200019000BF00BF4FF4004013900320D6
:1010C00014900020159013A9174800F0A3F91748B1
:1010D00014301949086024204860002116488160B6
:1010E000C160802101618900416149008161202145
:1010F000C161C901016200F025F908B1FFF757F994
:1011000000BF0D486065846200BF002202211220EA
:1011100000F0F6FA122000F0DFFA18B010BD00005F
:101120000000002000100240000400481C000240A3
:10113000EC000020000100504C010020014600207E
:1011400091F82520022A03D00422CA63012027E057
:101150000A68126822F00E020B681A608A6C126824
:1011600022F480728B6C1A600A68126822F0010205
:101170000B681A6091F8442002F01F0301229A4084
:101180000B6C5A60D1E913325A604A6D42B14A6D14
:10119000126822F480724B6D1A60D1E916325A60DF
:1011A000012281F8252000BF002281F8242000BF01
:1011B000704770B50446002594F8250002280BD02E
:1011C0000420E063012084F8250000BF002084F89B
:1011D000240000BF012534E02068006820F00E00E4
:1011E000216808602068006820F00100216808601C
:1011F000A06C006820F48070A16C086094F8440032
:1012000000F01F0101208840216C4860D4E91310D0
:101210004860606D40B1606D006820F48070616D61
:101220000860D4E916104860012084F8250000BF4A
:10123000002084F8240000BFA06B10B12046A16BF1
:101240008847284670BD70B50446206C0568206844
:10125000066894F8440000F01F01042088402840EC
:10126000E0B106F00400C8B12068006800F020007A
:1012700028B92068006820F004002168086094F80C
:10128000440000F01F0104208840216C4860206B5E
:10129000002856D02046216B884752E094F844003D
:1012A00000F01F0102208840284018B306F0020019
:1012B00000B32068006800F0200040B92068006892
:1012C00020F00A0021680860012084F8250094F8C5
:1012D000440000F01F0102208840216C486000BFDC
:1012E000002084F8240000BFE06A50B32046E16A81
:1012F000884726E094F8440000F01F010820884049
:101300002840F0B106F00800D8B12068006820F04D
:101310000E002168086094F8440000F01F010120CD
:101320008840216C48600120E06384F8250000BFFC
:10133000002084F8240000BF606B10B12046616B70
:10134000884770BD70B504460CB9012070BD2F49A7
:10135000206888420BD22E492068401A1421B0FB25
:10136000F1F0800060642A48083820640AE02749C8
:101370002068401A1421B0FBF1F08000606423481B
:1013800008382064022084F825002068056847F6A4
:10139000F0708543D4E9020108432169084361697B
:1013A0000843A1690843E1690843216A08430543EA
:1013B000206805602046FEF7C5FFA068B0F5804FA5
:1013C00001D1002060602079A16C0860D4E913107D
:1013D0004860606860B16068042809D82046FEF75C
:1013E000D3FF0020616D0860D4E91610486003E067
:1013F00000206065A065E0650020E063012084F8BE
:101400002500002084F8240000BF9FE70804024064
:101410000800024078B503460022D0E0012696403D
:101420000D6805EA0604002C72D04D68012D08D025
:101430004D68022D05D04D68112D02D04D68122D3A
:1014400013D1986856000325B540A8435600CD68CF
:10145000B54028439860586801259540A8430D7908
:10146000C5F30015954028435860D86856000325F9
:10147000B540A84356008D68B5402843D8604D68F4
:10148000022D02D04D68122D13D1D60803F120058C
:1014900055F826005507EE0E0F25B540A843560710
:1014A000F60E0D69B5402843D60803F1200545F82E
:1014B0002600186856000325B540A8430D7905F0AD
:1014C00003055600B540284318604D6805F0805567
:1014D000B5F1805F72D100BF3C4D2D6E45F0010526
:1014E0003A4E356635462D6E05F00105009500BF74
:1014F00000BF4FEAB635960855F8260095072E0F1F
:101500000F25B540A843B3F1904F02D100251AE052
:1015100054E02F4DAB4201D1012514E02D4DAB42DB
:1015200001D102250FE02C4DAB4201D103250AE089
:101530002A4DAB4201D1042505E0294DAB4201D132
:10154000052500E006259607360FB5402843254DB2
:10155000960845F82600244D2868A0434D6805F4F8
:101560008035B5F5803F00D120431F4D28602D1DEB
:101570002868A0434D6805F40035B5F5003F00D15B
:101580002043194D2D1D28602D1D2868A0434D684E
:1015900005F48015B5F5801F00D12043124D0835A4
:1015A00028602D1D2868A0434D6805F40015B5F589
:1015B000001F00D120430C4D0C352860521C0D68D3
:1015C000D540002D7FF42AAF78BD00000010024006
:1015D0000004004800080048000C004800100048C3
:1015E0000014004808000140000401400AB1816174
:1015F00000E0816270470000014800687047000009
:1016000004000020034800680349096808440149B0
:1016100008607047040000200C00002010B5002472
:10162000032000F0ABF8002000F008F808B1012416
:1016300001E000F02FF8204610BD000070B5044610
:10164000002511480068D8B10F4800684FF47A713E
:10165000B1FBF0F00D490968B1FBF0F6304601F03E
:10166000C1F858B9102C07D200222146501E00F0B4
:1016700047F80748046004E0012502E0012500E086
:101680000125284670BD00000C000020100000203D
:101690000800002008B500BF0E48006E40F00100B1
:1016A0000C4908660846006E00F00100009000BF7B
:1016B00000BF00BF0846806D40F080508865084636
:1016C000806D00F08050009000BF00BF00F0F6F881
:1016D00008BD0000001002400146084600280DDB4E
:1016E00000BF00BF00F01F0301229A4043099B0086
:1016F00003F1E023C3F8002100BF00BF00BF704723
:101700002DE9F05F80460D46164602F01BFA0746AB
:1017100039462A46334601F00700C0F1070ABAF1FC
:10172000040F02D94FF0040A01E0C0F1070AD146C4
:1017300000F1040ABAF1070F02D24FF0000A01E0EB
:10174000A0F1030AD4464FF0010A0AFA09FAAAF1F5
:10175000010A0AEA020A0AFA0CFA4FF0010B0BFA24
:101760000CFBABF1010B0BEA030B4AEA0B0421461D
:10177000404602F0EFF9BDE8F09F000000BF00F026
:101780000702064B19684FF6FF031940044B0B4341
:1017900043EA0221014B196000BF70470CED00E0E5
:1017A0000000FA0502468ABB4148006800F4C060A8
:1017B000B0F5806F2BD13E488030006820F48070F7
:1017C0003B4BC3F880001846006820F4C06040F42A
:1017D000007018603748006832235843364BB0FB1E
:1017E000F3F0411C00E0491E3148406900F480607C
:1017F000B0F5806F01D10029F5D12D48406900F482
:101800008060B0F5806F51D10320704708E0284810
:101810008030006820F48070254BC3F8800045E0DC
:10182000B2F5007F3AD12248006800F4C060B0F5FC
:10183000806F2AD11E488030006840F480701C4BB5
:10184000C3F880001846006820F4C06040F40070BF
:1018500018601848006832235843174BB0FBF3F068
:10186000411C00E0491E1248406900F48060B0F558
:10187000806F01D10029F5D10D48406900F48060E6
:10188000B0F5806F12D10320BFE7094880300068AF
:1018900040F48070064BC3F8800007E004480068FD
:1018A00020F4C06040F48060014B18600020ACE779
:1018B000007000401000002040420F000348806884
:1018C00040F480400149886070470000007000408B
:1018D0002DE9F84304460027B846206800F40020AC
:1018E000B0F5002F73D1B946D348806D00F0805019
:1018F00078B900BFD048806D40F08050CE498865EF
:101900000846806D00F08050009000BF00BF4FF08F
:101910000109CA48006840F48070C8490860FFF7B0
:101920006BFE064606E0FFF767FE801B022801D922
:10193000032705E0C148006800F480700028F2D059
:1019400000BF002F46D1BC489030006800F44075BD
:10195000CDB1206CA84216D0B7489030006820F472
:101960004075B548D0F8900040F48030B249C1F8D5
:1019700090000846D0F8900020F48030C1F8900024
:101980000846C0F8905005F00100A0B1FFF734FE02
:10199000064608E0FFF730FE801B41F2883188429E
:1019A00001D9032706E0A4489030006800F0020047
:1019B0000028EFD000BF5FB99F489030006820F446
:1019C0004070216C08439C49C1F8900003E00CE092
:1019D000B84600E0B846B9F1010F05D19648806DD0
:1019E00020F080509449886500BF207800F0010005
:1019F00048B191488830006820F0030061680843CE
:101A00008D49C1F88800207800F00200022809D131
:101A100089488830006820F00C00A1680843864996
:101A2000C1F88800207800F00400042809D1824819
:101A30008830006820F03000E16808437E49C1F832
:101A40008800207800F00800082809D17A488830FA
:101A5000006820F0C000216908437749C1F8880078
:101A6000207800F02000202809D1734888300068D1
:101A700020F44060616908436F49C1F8880020780C
:101A800000F04000402809D16B488830006820F4FD
:101A90004050A16908436849C1F88800207800F0E7
:101AA0008000802809D164488830006820F44040D4
:101AB000E16908436049C1F88800208800F480701B
:101AC000B0F5807F09D15C488830006820F4403050
:101AD000216A08435849C1F88800208800F4007042
:101AE000B0F5007F09D154488830006820F44020C8
:101AF000616A08435049C1F88800208800F480607A
:101B0000B0F5806F13D14C488830006820F4401045
:101B1000A16A0843484988310860A06AB0F5801F6F
:101B200005D14548C06840F480104349C86020880A
:101B300000F40060B0F5006F13D13F4888300068B2
:101B400020F44000E16A08433B4988310860E06ABC
:101B5000B0F5800F05D13848C06840F48010364990
:101B6000C860208800F48050B0F5805F13D13248FF
:101B70008830006820F04070216B08432E4988317E
:101B80000860206BB0F1807F05D12B48C06840F41D
:101B900080102949C860208800F40050B0F5005F2B
:101BA00013D125488830006820F04060616B0843FD
:101BB000214988310860606BB0F1006F05D11E4883
:101BC000C06840F480101C49C860208800F4804040
:101BD000B0F5804F13D118488830006820F040607D
:101BE000A16B0843144988310860A06BB0F1006F05
:101BF00005D11148C06840F480100F49C8602088A2
:101C000000F40040B0F5004F13D10B488830006855
:101C100020F04050E16B0843074988310860E06BD1
:101C2000B0F1805F05D10448C06840F480300249BB
:101C3000C8604046BDE8F8830010024000700040D4
:101C40002DE9F04104460D464FF0000814B901207B
:101C5000BDE8F0817D48006800F00F00A8420ED278
:101C60007A48006820F00F00284378490860084649
:101C7000006800F00F00A84201D00120E8E72078BA
:101C800000F00100002864D06068032823D1704868
:101C9000006800F0007008B90120D9E701F020FBCE
:101CA00006466C48864237D96948806800F0F000E3
:101CB00030B1207800F0020002282DD1A06858BB76
:101CC0006348806820F0F00040F080006049886040
:101CD0004FF0800820E06068022806D15C48006868
:101CE00000F4003040B90120B2E75948006800F420
:101CF000806008B90120ABE700F0DEF806465548E1
:101D0000864209D95248806820F0F00040F08000F7
:101D10004F4988604FF080084D48806820F00300EC
:101D2000616808434A498860FFF766FC074608E097
:101D3000FFF762FCC01B41F28831884201D90320C1
:101D400086E74348806800F00C006168B0EB810FC3
:101D5000EED1207800F00200022820D1207800F097
:101D60000400042805D13A48806840F4E06038490E
:101D70008860207800F00800082807D1344880687F
:101D800020F4605040F4E060314988603048806859
:101D900020F0F000A16808432D49886008E0B8F100
:101DA000800F05D12A48806820F0F000284988601B
:101DB0002648006800F00F00A84219D9234800689F
:101DC00020F00F00284321490860FFF715FC074663
:101DD00008E0FFF711FCC01B41F28831884201D9AD
:101DE000032035E71948006800F00F00A842F0D141
:101DF000207800F00400042807D11548806820F4FA
:101E0000E060E168084312498860207800F008002B
:101E1000082808D10E48806820F46050216940EA03
:101E2000C1000B49886000F047F809498968C1F38F
:101E30000311094A515C01F01F01C84007490860BD
:101E400007480068FFF7FAFB02E7000000200240A5
:101E50000010024000B4C4043A3C00081000002006
:101E600008000020014800687047000010000020B2
:101E700000B5FFF7F7FF05498968C1F30221044A5D
:101E8000515C01F01F01C84000BD0000001002407D
:101E90004A3C000800B5FFF7E5FF05498968C1F332
:101EA000C221044A515C01F01F01C84000BD00007E
:101EB000001002404A3C000870B5224DAD6805F0A4
:101EC0000C05042D01D120483AE01E4DAD6805F007
:101ED0000C05082D01D11D4832E01A4DAD6805F002
:101EE0000C050C2D2BD1174DED6805F00304154D95
:101EF000ED68C5F303156A1C022C0CD0032C09D124
:101F0000124DB5FBF2F50F4EF668C6F3062605FB3B
:101F100006F10AE000BF0C4DB5FBF2F5094EF6687C
:101F2000C6F3062605FB06F100BF00BF054DED68B0
:101F3000C5F341656D1C6B00B1FBF3F000E00020C0
:101F400070BD0000001002400024F40000127A006E
:101F50002DE9F843044614B90120BDE8F883207840
:101F600000F00100002865D0FC48806800F00C07F4
:101F7000FA48C06800F003060C2F01D1032E01D0EF
:101F8000082F0AD1F548006800F40030002851D02D
:101F9000606800284ED10120DFE700BF6068B0F51F
:101FA000803F06D1ED48006840F48030EB4908607E
:101FB0001AE06068B0F5A02F0BD1E848006840F443
:101FC0008020E64908600846006840F480300860D8
:101FD0000AE0E248006820F48030E04908600846E2
:101FE000006820F48020086000BF606888B1FFF7B7
:101FF00003FB054606E0FFF7FFFA401B642801D902
:102000000320AAE7D548006800F400300028F2D089
:1020100010E0FFF7F1FA054606E0FFF7EDFA401B86
:10202000642801D9032098E7CC48006800F4003008
:102030000028F2D1207800F00200022860D1C748C1
:10204000806800F00C07C548C06800F003060C2F3C
:1020500001D1022E01D0042F18D1C048006800F42D
:10206000806018B1E06808B9012076E7BB48406895
:1020700020F0FE40217C40EA0160B8494860B84841
:102080000068FFF7DBFA18B3012066E7E06800B3E9
:10209000B248006840F48070B0490860FFF7ACFABD
:1020A000054606E0FFF7A8FA401B022801D90320E5
:1020B00053E7AA48006800F480600028F2D0A748DF
:1020C000406820F0FE40217C40EA0160A34948605E
:1020D00016E0A248006820F48070A0490860FFF76D
:1020E0008BFA054606E0FFF787FA401B022801D964
:1020F000032032E79948006800F480600028F2D19C
:10210000207800F00800082836D16069D0B19348E3
:102110009430006840F001009049C1F89400FFF746
:102120006BFA054606E0FFF767FA401B022801D963
:10213000032012E789489430006800F0020000286C
:10214000F1D019E085489430006820F001008349FF
:10215000C1F89400FFF750FA054606E0FFF74CFA85
:10216000401B022801D90320F7E67C489430006820
:1021700000F002000028F1D1207800F004000428CB
:1021800072D14FF000087548806D012121EA10706E
:1021900078B100BF7148806D40F080506F4988650C
:1021A0000846806D00F08050009000BF00BF4FF0E7
:1021B00001086C48006800F48070B0B96948006894
:1021C00040F4807067490860FFF716FA054606E09C
:1021D000FFF712FA401B022801D90320BDE661482F
:1021E000006800F480700028F2D000BFA0680128C9
:1021F00008D15A489030006840F001005749C1F8B2
:10220000900021E0A06805280FD154489030006864
:1022100040F004005149C1F890000846D0F8900001
:1022200040F00100C1F890000EE04C48903000688A
:1022300020F001004949C1F890000846D0F890000C
:1022400020F00400C1F8900000BFA068A8B1FFF71B
:10225000D3F9054609E0FFF7CFF9401B41F2883179
:10226000884202D9032078E625E03C489030006897
:1022700000F002000028EED013E0FFF7BDF905469C
:1022800008E0FFF7B9F9401B41F28831884201D9D3
:10229000032062E631489030006800F00200002818
:1022A000EFD1B8F1010F05D12C48806D20F080509E
:1022B0002A49886500BF207800F02000202836D108
:1022C000A069D0B125489830006840F0010023494A
:1022D000C1F89800FFF790F9054606E0FFF78CF982
:1022E000401B022801D9032037E61C4898300068BB
:1022F00000F002000028F1D019E01848983000687A
:1023000020F001001549C1F89800FFF775F905465E
:1023100006E0FFF771F9401B022801D903201CE6F3
:102320000E489830006800F002000028F1D1E06902
:10233000002860D00948806800F00C000C287FD08D
:10234000E069022858D10548006820F080700349F0
:102350000860FFF751F905460DE00000001002404B
:102360000800002000700040FFF746F9401B0228DB
:1023700001D90320F1E54D48006800F00070002805
:10238000F2D1D4E90810401E41EA0011A06A41EAE6
:102390000021208E0122C2EB500041EA405134203E
:1023A000005DC2EB500041EA40612C20005D41EA33
:1023B000C0603E49C9683E4A114008433B49C86075
:1023C0000846006840F0807008600846C06840F029
:1023D0008070C860FFF710F9054606E0FFF70CF9BA
:1023E000401B022801D90320B7E53048006800F0FF
:1023F00000700028F2D056E02C48006820F0807071
:102400002A4908600846C06820F00300C8600846F2
:10241000C068284908402549C860FFF7EDF805461F
:1024200007E00DE0FFF7E8F8401B022801D9032080
:1024300093E51E48006800F000700028F2D132E0F9
:10244000E069012800D188E51848C66806F0030154
:10245000206A814225D106F0F001606A401EB1EB8E
:10246000001F1ED106F4FE41A06AB1EB002F18D167
:1024700006F078412C20005DB1EBC06F11D106F45D
:10248000C001208E0122C2EB5000B1EB405F08D1A9
:1024900006F0C0613420005DC2EB5000B1EB406F2C
:1024A00001D0012059E5002057E50000001002404E
:1024B0000C809F01FFFFEEFE70B504460125002C45
:1024C0004ED094F8250028B9002084F82400204636
:1024D00000F04CF8022084F8250000BFCA202149F2
:1024E00008605320086000BF204600F03BFF05460F
:1024F0006DBB1C480C3800681B49084019490C3951
:102500000860216960680843A169084315490C39CE
:102510000968084313490C3908602089E16841EAD9
:102520000040104914390860204600F043FF05467A
:102530006DB9D4E9071008436169084309490C39AA
:10254000096821F06041084306490C39086000BF62
:10255000FF200449086000BF15B9012084F8250058
:10256000284670BD24280040BFFF8FFB10B592B0F5
:102570000446442101A8FDF783FE134920688842E0
:1025800020D14FF4002001904FF44070119001A829
:10259000FFF79EF908B1FDF70AFF0C48006840F408
:1025A00000400A499039C1F8900000BF0846806D8C
:1025B00040F4806088650846806D00F4806000907B
:1025C00000BF00BF12B010BD0028004090100240B4
:1025D0002DE9F04705460C46174600BF95F8240044
:1025E000012802D10220BDE8F087012085F82400EF
:1025F00000BF022085F825004FB9607800F0100078
:10260000102804D1607800F0EF000A30607097B9AC
:10261000E07800F099FE4FEA0049607800F094FEFF
:1026200049EA0029A07800F08FFE49EA00092078E5
:1026300049EA403809E0E0780004617840EA012086
:10264000A1780843217840EA413800BFCA201249E6
:1026500008605320086000BF284600F083FE06464D
:102660004EB90E4808EA00000B4920390860284698
:1026700000F0A0FE064600BFFF200749086000BF2B
:1026800016B9012085F8250000BF002085F8240038
:1026900000BF3046A7E70000242800403FFFFF00AE
:1026A0002DE9F04705460C46904600BF95F82400FA
:1026B000012802D10220BDE8F087012085F824001E
:1026C00000BF022085F8250000BFCA2034490860F9
:1026D0005320086000BF284600F044FE0646002E46
:1026E0004ED1B8F1000F1CD12D480C38006800F015
:1026F000400000B102E00020E07000BF207800F050
:1027000023FE4FEA0049607800F01EFE49EA0029E6
:10271000A07800F019FE49EA0009E07849EA8057FC
:1027200013E01F480C38006800F0400000B102E0E0
:102730000020E07000BF20780004617840EA0120AA
:10274000A1780843E17840EA815716483840144997
:102750002439086012480C38006820F480201049A1
:102760000C390860D4E9030108430D490C390968A4
:1027700008430B490C390860284600F01BFE06464A
:1027800000BFFF200649086000BF16B9012085F888
:10279000250000BF002085F8240000BF30468AE7EE
:1027A000242800407F7F7F0070B505460C480068F4
:1027B00020F020000A490860FEF71EFF044607E0EB
:1027C000FEF71AFF001BB0F57A7F01D9032070BD18
:1027D0000348006800F020000028F1D00020F6E750
:1027E0000C28004070B504462546681EB0F1807F75
:1027F00001D301200FE0681E4FF0E02148610F2156
:102800004FF0FF3001F0A6F900204FF0E021886181
:1028100007200861002070BD014600BF91F88000CC
:10282000012801D102207047012081F8800000BFFB
:102830002420C1F88400086802680868006820F055
:1028400001000B68186022F00052002048660868FA
:1028500002602020C1F8840000BF002081F88000C1
:1028600000BF00BFDFE7000070B505460C46074813
:1028700001F0A5F920B922460549044801F0A7F95D
:1028800080210348FDF7FCFC70BD000044030020DC
:10289000D4010020704770B504460D4600BF94F87F
:1028A0008000012801D1022070BD012084F8800041
:1028B00000BF2420C4F884002068066820680068EF
:1028C00020F00100216808602068806820F06060C6
:1028D000284321688860204600F0E4FD20680660F7
:1028E0002020C4F8840000BF002084F8800000BFCE
:1028F00000BFD9E770B504460D4600BF94F88000CC
:10290000012801D1022070BD012084F8800000BFA1
:102910002420C4F88400206806682068006820F03D
:102920000100216808602068806820F0604028432A
:1029300021688860204600F0B5FD206806602020F0
:10294000C4F8840000BF002084F8800000BF00BFEE
:10295000D9E77047704770472DE9F0470446206873
:10296000C569206806682068876840F60F0005EA98
:102970000009B9F1000F0FD105F0200060B106F099
:10298000200010B907F0805030B1206F10B1204600
:10299000216F8847BDE8F087B9F1000F7ED0AD48C0
:1029A000384018B9AC4830400028F7D005F0010095
:1029B00058B106F4807040B1012021680862D4F853
:1029C0008C0040F00100C4F88C0005F0020058B102
:1029D00007F0010040B1022021680862D4F88C00A1
:1029E00040F00400C4F88C0005F0040058B107F072
:1029F000010040B1042021680862D4F88C0040F046
:102A00000200C4F88C0005F0080070B106F0200048
:102A100010B99048384040B1082021680862D4F8C5
:102A20008C0040F00800C4F88C0005F4006060B130
:102A300006F0806048B14FF4006021680862D4F865
:102A40008C0040F02000C4F88C00D4F88C000028E2
:102A500044D005F0200050B106F0200010B907F076
:102A6000805020B1206F10B12046216F8847D4F8E4
:102A70008CA02068806800F04000402802D00AF056
:102A8000280028B3204600F0FDFD2068806800F093
:102A90004000402818D12068806800E01FE020F046
:102AA000400021688860E06F50B16C48E16F886336
:102AB000E06FFEF77EFB88B1E06F816B88470DE029
:102AC0002046FFF748FF09E02046FFF744FF05E0F6
:102AD0002046FFF740FF0020C4F88C005AE7E06E64
:102AE000012879D105F01000002875D006F01000FB
:102AF000002871D01020216808622068806800F0EA
:102B0000400040283DD1E06F006840681FFA80F81F
:102B1000B8F1000F34D0B4F85C00404530DDA4F8C3
:102B20005E80E06F0068006800F02000F8B920685F
:102B3000006820F48070216808602068806820F0B8
:102B40000100216888602068806820F040002168CA
:102B500088602020C4F888000020E06620680068B3
:102B600020F0100021680860E06FFEF7E7FAB4F883
:102B70005C00B4F85E20801A81B22046FFF774FE34
:102B800008E734F85C0F6188401A1FFA80F8608803
:102B90005C3CF8B1B8F1000F1CD02068006820F44C
:102BA000907021680860206880682A49C9430840FD
:102BB000216888602020C4F888000020E066206733
:102BC0002068006820F01000216808604146204617
:102BD000FFF74AFEDEE6FFE705F4801050B107F488
:102BE000800038B14FF48010216808622046FFF75A
:102BF000B1FECFE605F0800058B106F0800010B9B4
:102C000007F4000028B1606F10B12046616F88475B
:102C1000C0E605F0400030B106F0400018B1204693
:102C200000F04EFDB6E605F4000030B106F080403D
:102C300018B12046FFF78DFEACE605F0807030B18C
:102C400006F0004018B12046FFF724FEA2E600BFC0
:102C5000A0E6000001000010200100046B3600080F
:102C600010B504460CB9012010BDA06900B100E008
:102C700000BFD4F8840028B9002084F880002046E2
:102C800000F02AF82420C4F884002068006820F0AE
:102C9000010021680860204600F024FD012800D1D1
:102CA000E2E7A06A10B1204600F028FC20684068E6
:102CB00020F49040216848602068806820F02A0055
:102CC000216888602068006840F001002168086081
:102CD000204600F08FFCC7E710B598B004461421D9
:102CE00013A8FDF7CDFA442102A8FDF7C9FA2F4930
:102CF0002068884257D1012002900020039002A84A
:102D0000FEF7E6FD08B1FDF752FB00BF2848006E54
:102D100040F48040264908660846006E00F4804072
:102D2000019000BF00BF00BF0846C06C40F001002A
:102D3000C8640846C06C00F00100019000BF00BFED
:102D40004FF4C0601390022014900020159016904C
:102D50000720179013A94FF09040FEF75BFB154832
:102D60001549086018204860002113488160C1603F
:102D700080210161002141618161C1614FF40051F5
:102D80000162FEF7DFFA08B1FDF711FB00BF0A4848
:102D9000E067846200BF002211462520FEF7B0FCE8
:102DA0002520FEF799FC18B010BD00000038014046
:102DB0000010024008000240E4020020704700BFFB
:102DC000FEE70146886800F01F007047024602F1E6
:102DD000600000EB8103186800F0F840704701467E
:102DE0008868C0F3C00070470146886800F00100A1
:102DF00070470146886800F0010070470146886806
:102E0000C0F30070704701468868C0F380007047C7
:102E100001468868C0F3800070470146C86800F426
:102E2000406008B9012070470020FCE770B500F150
:102E30001404C1F3406504EB85031C68C1F3045618
:102E40000725B540AC43C1F3045502FA05F52C4300
:102E50001C6070BD826822F0E0720A438260704795
:102E600010B500F1600404EB81031C6824F00044F9
:102E700014431C6010BD426922F000420A434261C3
:102E80007047000000B58BB00020089009900A90B0
:102E900020216846FDF7F4F94FF0A0402049086072
:102EA0004FF40030486000211D488160C16001611D
:102EB0004161042181610021017701214177016293
:102EC000002180F82410C1620163012180F83810CC
:102ED0000021C16380F84010FDF716FF08B1FDF72F
:102EE00066FA0020089008A90D48FDF769FA08B1B4
:102EF000FDF75DFA0B48009006200190002002903B
:102F00007F20039004200490002005906946044827
:102F1000FDF7DCFA08B1FDF74AFA0BB000BD00007E
:102F2000140000200008302E00B589B0202101A82F
:102F3000FDF7A6F91A481B490860400248600021C5
:102F400018488160C16001614161042181610021F3
:102F50000177417701210162002180F82410C162CC
:102F6000016380F83810C16380F84010FDF7CCFE93
:102F700008B1FDF71CFA0C480190062002900020D1
:102F800003907F200490042005900020069001A962
:102F90000448FDF79BFA08B1FDF709FA09B000BD36
:102FA00000010050800000200080F03E08B500BF06
:102FB0001948806C40F00400174988640846806C0A
:102FC00000F00400009000BF00BF00BF0846806C06
:102FD00040F0010088640846806C00F00100009019
:102FE00000BF00BF002211460B20FEF789FB0B201B
:102FF000FEF772FB002211460C20FEF781FB0C202D
:10300000FEF76AFB002211460D20FEF779FB0D202A
:10301000FEF762FB08BD00000010024000B587B05B
:10302000142102A8FDF72CF900BF6448C06C40F0E1
:1030300004006249C8640846C06C00F004000190B6
:1030400000BF00BF00BF0846C06C40F02000C8644D
:103050000846C06C00F02000019000BF00BF00BF18
:103060000846C06C40F00100C8640846C06C00F01F
:103070000100019000BF00BF00BF0846C06C40F0D7
:103080000200C8640846C06C00F00200019000BF56
:1030900000BF00BF0846C06C40F00800C864084686
:1030A000C06C00F00800019000BF00BF01224FF487
:1030B0007F414348FEF79AFA0022F6214048FEF786
:1030C00095FA00224FF480714FF09040FEF78EFA8F
:1030D000012204213B48FEF789FA00224FF448718F
:1030E0003948FEF783FA4FF6F670029001200390FC
:1030F00000200490059002A93148FEF78BF90120C9
:103100000290022003900020049005900220069077
:1031100002A92B48FEF77EF90820029003200390B5
:103120000020049002A92648FEF774F901200290BD
:10313000002003900120049002A94FF09040FEF778
:1031400069F902200290039000200490059001206C
:10315000069002A94FF09040FEF75CF9072002901C
:10316000002003900120049002A91748FEF752F9AD
:103170004FF480700290012003900020049005908D
:1031800002A94FF09040FEF745F90420029001207B
:10319000039000200490059002A90A48FEF73AF92E
:1031A0004FF4487002900120039000200490059095
:1031B00002A90548FEF72EF907B000BD0010024035
:1031C00000080048000C00480004004800B587B023
:1031D000142102A8FDF754F800200190204821494D
:1031E0000860002048607D211E48816041F27071B6
:1031F000C16000210161416181614FF08041C16185
:1032000000210162FFF758F908B1FDF7D0F8172047
:103210008DF808003B208DF809008DF80A00002089
:10322000039005900690002202A90E48FFF738FA95
:1032300008B1FDF7BCF801208DF804008DF80500F9
:103240008DF8060000208DF80700002201A905482E
:10325000FFF7BEF908B1FDF7AAF807B000BD0000FE
:1032600000280040AC01002010B51848184908603B
:103270004FF4E1304860002115488160C160016170
:103280000C21416100218161C16101624162002024
:103290000F4988620846FFF7E3FC08B1FDF787F89D
:1032A00000210B48FFF726FB08B1FDF780F800214D
:1032B0000748FFF7F0FA08B1FDF779F80448FFF77F
:1032C000ABFA08B1FDF773F810BD000000380140FB
:1032D0005402002000BFFEE700BFFEE77047000079
:1032E00070B5164DED6805F00304144DED68C5F397
:1032F00003156B1C022C0CD0032C09D1104DB5FB0F
:10330000F3F50E4EF668C6F3062605FB06F10AE055
:1033100000BF0C4DB5FBF3F5084EF668C6F3062664
:1033200005FB06F100BF00BF044DED68C5F3416524
:103330006D1C6A00B1FBF2F070BD0000001002408D
:1033400000127A000024F40002460023114603E034
:103350005B1CA1F10A00C1B20A29F9D2180741EA9F
:103360001060704770B5054600261148006800F0EF
:103370004000D0B90E48006840F080000C49086059
:10338000FEF73AF9044609E0FEF736F9001BB0F5FE
:103390007A7F03D90326032085F8250004480068B6
:1033A00000F0400008B9032EEED1304670BD000099
:1033B0000C28004070B5044600251748006820F02E
:1033C00080001549086014480C30006800F02000A7
:1033D00040B92046FFF7E8F9E0B1032084F8250062
:1033E000032517E00C480C30006820F020000A4943
:1033F0000C3108602046FFF7D7F918B1032084F894
:103400002500032504480C30006840F020000249E4
:103410000C310860284670BD0C280040704710B57C
:10342000FEF7F0F810BD00B593B0382105A8FCF701
:1034300027FF14216846FCF723FF4FF40070FEF7C6
:10344000B1F9012005900004069002200C900321A0
:103450000D9101210E9114210F91022110911191D2
:10346000129105A8FEF774FD08B1FCF7A0FF0F202C
:10347000009003200190002002900390049002210C
:103480006846FEF7DDFB08B1FCF791FF13B000BD05
:103490000348006840F4700001490860704700006C
:1034A00088ED00E070B5456E2DB90125A0F86A5091
:1034B000A0F868501CE0082308240568AD68C5F32F
:1034C00042610568AD686A0F0A4DAD5C15FB04F5F5
:1034D000094EB65C95FBF6F5A0F86A50054D6D5C9B
:1034E00015FB03F5044E765C95FBF6F5A0F86850E5
:1034F00070BD00002A3C0008323C000890F82810FB
:1035000001F0010139B10168496821F40031C26A52
:1035100011430268516090F8281001F0020102295D
:1035200007D10168496821F48031026B11430268B8
:10353000516090F8281001F00401042907D10168B6
:10354000496821F48021426B11430268516090F870
:10355000281001F00801082907D10168496821F401
:103560000041826B11430268516090F8281001F00D
:103570001001102907D10168896821F48051C26BBC
:1035800011430268916090F8281001F02001202971
:1035900007D10168896821F40051026C1143026867
:1035A000916090F8281001F04001402913D1016882
:1035B000496821F48011426C114302685160416CEA
:1035C000B1F5801F07D10168496821F4C001826C00
:1035D00011430268516090F8281001F080018029A1
:1035E00007D10168496821F40021C26C11430268C7
:1035F0005160704738B504460020C4F88C00FDF7D0
:10360000FBFF05462068006800F0080008280CD180
:103610006FF07E402B4600224FF4001100902046B0
:1036200000F026FA08B1032038BD2068006800F0D9
:10363000040004280CD16FF07E402B4600224FF48A
:1036400080010090204600F013FA08B10320EBE758
:103650002020C4F88400C4F888000020E06600BF81
:1036600084F8800000BF00BFDEE770B50546AC6A95
:103670000020A4F85E00A4F856002046FFF76BF97E
:1036800070BD00000168096821F490710268116042
:1036900001688968094A114002689160C16E012978
:1036A00005D10168096821F010010268116020212C
:1036B000C0F888100021C16601677047FEFFFFEF68
:1036C00010B504462068006820F0400021680860BA
:1036D0002020C4F88400002060672046FFF76EFBBE
:1036E00010BD00002DE9FE4F044600200290D6498F
:1036F0002068884200D100E000BF2169A06808432B
:1037000061690843E16940EA010820680068CF491F
:10371000084040EA0800216808602068406820F4FA
:103720004050E168084321684860D4F81880C649D1
:103730002068884202D0206A40EA08082068806831
:10374000C349084040EA0800216888602068C06AD0
:1037500020F00F00616A08432168C86200BFBD49BC
:103760002068884216D1BC48006800F0030030B1E0
:10377000012808D0022804D0032808D105E001253B
:1037800007E0022505E0042503E0082501E01025F7
:1037900000BF6FE0B1492068884216D1AE4800688A
:1037A00000F00C0030B1042808D0082804D00C2800
:1037B00008D105E0002507E0022505E0042503E027
:1037C000082501E0102500BF54E0A5492068884283
:1037D00016D1A148006800F0300030B1102808D0A0
:1037E000202804D0302808D105E0002507E0022574
:1037F00005E0042503E0082501E0102500BF39E0BD
:1038000098492068884216D19348006800F0C000AB
:1038100030B1402808D0802804D0C02808D105E065
:10382000002507E0022505E0042503E0082501E066
:10383000102500BF1EE084492068884219D18648BF
:10384000006800F4406048B1B0F5806F0AD0B0F570
:10385000006F05D0B0F5406F08D105E0002507E006
:10386000022505E0042503E0082501E0102500BF3E
:1038700000E0102500BF7449206888425DD135B151
:10388000022D08D0042D08D0082D0DD109E0FEF737
:10389000EFFA06460CE0744E0AE0FEF70DFB064612
:1038A00006E04FF4004603E000260120029000BF2E
:1038B00000BF002E10D06D49606A31F81000B6FBD1
:1038C000F0F9606800EB4000484503D860680003E9
:1038D000484502D201200290AAE06449606A31F8AA
:1038E00010C06246002330461946FCF791FC4FF4A5
:1038F000807C00220B46A0FB0C1B03FB0CB300FBDF
:103900000233606840088C461CEB000043EB020168
:10391000CDE90001D4F804C062460023FCF778FC2E
:103920000746B7F5407F05D3B7F5801F02D2206860
:10393000C7607DE0012002907AE0E069B0F5004FB9
:1039400040D1092D17D2DFE805F005090D160F1635
:1039500016161300FEF78CFA064610E0FEF79AFAE8
:1039600006460CE0404E0AE0FEF7A6FA064606E0E0
:103970004FF4004603E000260120029000BF00BF84
:10398000FEB13A49606A31F81000B6FBF0F0400031
:10399000616800EB5100B0FBF1F087B2102F0ED33D
:1039A000B7F5803F0BD24FF6F07007EA000AC7F375
:1039B00042004AEA000A2068C0F80CA038E0012062
:1039C000029035E0092D17D2DFE805F005090D1644
:1039D0000F1616161300FEF74BFA064610E0FEF718
:1039E00059FA06460CE0204E0AE0FEF765FA064654
:1039F00006E04FF4004603E000260120029000BFDD
:103A000000BFAEB11949606A31F81000B6FBF0F0A2
:103A1000616800EB5100B0FBF1F087B2102F05D3C5
:103A2000B7F5803F02D22068C76001E00120029014
:103A30000120A4F86A00A4F86800002020676067ED
:103A40000298BDE8FE8F000000800040F369FFCFC0
:103A5000FFF4FF110038014088100240004400408C
:103A600000480040004C00400024F400123C0008D4
:103A70002DE9F04104460D4617469846069E4AE059
:103A8000701C002847D0FDF7B7FDA0EB0800B0423E
:103A900000D8C6B92068006820F4D070216808609A
:103AA0002068806820F00100216888602020C4F828
:103AB0008400C4F8880000BF002084F8800000BFA4
:103AC0000320BDE8F0812068006800F0040010B316
:103AD0002068C069C0F3C020E8B14FF400602168DD
:103AE00008622068006820F4D070216808602068AF
:103AF000806820F00100216888602020C4F88400DC
:103B0000C4F88800C4F88C0000BF002084F880004E
:103B100000BF0320D5E72068C0692840A84201D132
:103B2000012000E00020B842AAD00020C9E7000030
:103B300010B50248FEF710FF10BD0000540200202F
:103B400000BFFEE702480068C0F302207047000093
:103B50000CED00E010B5002804DB0A07130E054A3F
:103B6000135406E00A07140E034A00F00F031B1F4C
:103B7000D45410BD00E400E018ED00E002E008C8F5
:103B8000121F08C1002AFAD170477047002001E0D7
:103B900001C1121F002AFBD17047FDF73FFDFFF75F
:103BA00042FCFFF73BFAFFF701FAFFF75DFBFFF777
:103BB00069F9FFF7B9F9FFF709FB00BFFEE7014616
:103BC000886A1E2801D1012070470020FCE730B52B
:103BD00003460C461846FFF7F2FF10B14FF0FF30D6
:103BE00030BD10E014F8011B03F108001D684155B9
:103BF0001868401C1E21B0FBF1F501FB1500186090
:103C0000986A401C9862101EA2F10102EAD100BF1E
:103C1000E6E7010002000400060008000A000C00AC
:103C20001000200040008000000101010103070195
:103C30000000080402040801010100000000000067
:103C40000000010203040607080900000000010249
:103C500003040000743C0008000000201400000071
:103C60007C3B0008883C0008140000209C070000F2
:103C70008C3B000800000000000000001000000065
:083C8000010000000024F40023
:04000005080001D915
:00000001FF
